:020000040800F2
:10000000A0070020CD01000853300008F9210008A6
:1000100051300008D10400082F340008000000000F
:100020000000000000000000000000001731000880
:10003000D304000800000000553000081931000802
:10004000E7010008E7010008E7010008E7010008F0
:10005000E7010008E7010008E7010008E7010008E0
:10006000E7010008E7010008E7010008E7010008D0
:10007000E7010008E7010008E7010008E7010008C0
:10008000E7010008E7010008E7010008E7010008B0
:10009000E7010008E7010008E7010008E7010008A0
:1000A000E7010008E7010008E7010008E701000890
:1000B000E7010008E7010008E7010008FD2100084A
:1000C000E7010008E7010008E7010008E701000870
:1000D000E7010008E7010008E7010008E701000860
:1000E000E7010008E7010008E7010008E701000850
:1000F000E7010008E7010008E7010008E701000840
:10010000E7010008E7010008E7010008E70100082F
:10011000E7010008E7010008E7010008E70100081F
:10012000E7010008E7010008E7010008E70100080F
:1001300000F002F800F03AF80AA090E8000C8244BF
:100140008344AAF10107DA4501D100F02FF8AFF29C
:10015000090EBAE80F0013F0010F18BFFB1A43F0A5
:1001600001031847C8400000E8400000103A24BFCF
:1001700078C878C1FAD8520724BF30C830C144BF0C
:1001800004680C607047000000230024002500264E
:10019000103A28BF78C1FBD8520728BF30C148BFEA
:1001A0000B6070471FB51FBD10B510BD00F058F8AB
:1001B0001146FFF7F7FF03F06FF900F076F803B48C
:1001C000FFF7F2FF03BC00F07DF80000094880470C
:1001D00009480047FEE7FEE7FEE7FEE7FEE7FEE729
:1001E000FEE7FEE7FEE7FEE704480549054A064B41
:1001F000704700009731000831010008A00100207D
:10020000A0070020A0030020A00300204FF0000260
:1002100000B5134694469646203922BFA0E80C50FC
:10022000A0E80C50B1F12001BFF4F7AF090728BFD7
:10023000A0E80C5048BF0CC05DF804EB890028BF53
:1002400040F8042B08BF704748BF20F8022B11F07C
:10025000804F18BF00F8012B7047704770477047F8
:10026000754600F02BF8AE4605006946534620F06F
:100270000700854618B020B5FFF7B6FFBDE820405F
:100280004FF000064FF000074FF000084FF0000B52
:1002900021F00701AC46ACE8C009ACE8C009ACE805
:1002A000C009ACE8C0098D46704710B50446AFF3ED
:1002B00000802046BDE81040FFF781BF004870472E
:1002C0004001002001491820ABBEFEE726000200D5
:1002D0007047000070B5044600688168C943C907CB
:1002E00017D1816821F00101816000F0A7FD05466A
:1002F0000AE000BF00F0A2FD401B022804D92068DC
:100300008068C043C00706D020688068C043C0072B
:10031000F0D0002070BDA06A40F01000A062E06A3A
:1003200040F00100E062012070BD0000F8B5002639
:100330000446009600688168C943C9072DD08168CA
:1003400041F001018160164816490068B0FBF1F0E8
:1003500000E0401E00900028FBD100F06FFD054634
:1003600016E000BF00F06AFD401B022810D920688B
:100370008068C043C0070BD0A06A40F01000A062A4
:10038000E06A40F00100E06284F824600120F8BDDA
:1003900020688068C043C007E4D10020F8BD000099
:1003A0002000002040420F001CB5E1208DF8040021
:1003B0004FF6FF700090012301AA7021014801F05F
:1003C00049F81CBDA4000020FEB506464FF6FF709C
:1003D0000D460090062301AA7121214800F018FF64
:1003E0009DF80400C409C0F3C00008B900F042F849
:1003F0000CB10120FEBD9DF805009DF8061000031C
:100400009DF8072040EA011040EA12111548120732
:10041000120B01609DF8083042EA03249DF8092080
:1004200014434460084603F007FA00220E4B03F021
:1004300017FA6FF013073A4603F07FFE03F06AF8ED
:100440003060204603F08CFC394603F0A4FE0749D7
:1004500003F0CEFC064903F0C9FD28600020FEBD74
:10046000A400002024000020000059400000484360
:10047000000048421CB5BA208DF804004FF6FF700A
:100480000090012301AA7021034800F0E3FF14202B
:1004900000F0C6FB1CBD0000A40000201CB5AC2071
:1004A0008DF8040033208DF8050000208DF806003B
:1004B0004FF6FF700090032301AA7021034800F05B
:1004C000C9FF502000F0ACFB1CBD0000A4000020C0
:1004D000FEE7704770B5064632211E4800F006FA66
:1004E0001C4800F043F91C4D80B2288003F038FC12
:1004F0006FF00B0103F04FFE03F0B0FA4FF06632DD
:10050000164B03F0ADF903F005F8686003F0A6FAA6
:10051000134A144B03F038F802F0FCFF0446A860BD
:100520002146114803F062FD05461049204603F0BC
:100530005FFC294603F032FB03F090FA0C4A0D4BA6
:1005400003F022F800220C4B03F08AF902F0E2FFDC
:10055000306070BD740000202C00002066660A40E8
:10056000E29852E5FBD7F93F0000A0400000964317
:10057000AE47E17A14E669400000594010B50448DE
:1005800000F00AF8BDE81040014800F04DBA000044
:100590007400002072B6FEE7F8B500250446009509
:1005A00090F82400012808D0012084F82400204677
:1005B000FFF790FE060002D053E00220F8BDA06ACB
:1005C00020F4885040F00200A062022001F0AAF856
:1005D00026490968B1FBF0F0400000E0401E0090A1
:1005E0000028FBD12046FFF7A1FE2068816841F07A
:1005F0000801816000F022FC074608E000F01EFCC4
:10060000C01B0A2803D920688068000715D4206819
:1006100080680007F2D42068816841F0040181609D
:1006200000F00CFC074612E000F008FCC01B0A2892
:100630000DD920688068400709D5A06A20F0020023
:1006400040F01000A06284F824500120F8BD20681A
:1006500080684007E8D4A06A20F0020040F0010062
:10066000A06284F824503046F8BD0000200000202D
:10067000F8B50024009490F824202546012A12D0D1
:10068000012280F824204A681F23072A0DD2066819
:10069000776B521E02EB820293409F430B6893409C
:1006A0001F43776319E00220F8BD06680D2A0AD2BD
:1006B000376BD21F02EB820293409F430B6893403B
:1006C0001F43376309E0F76A0D3A02EB8202934059
:1006D0009F430B6893401F43F7620A68072306682D
:1006E0000A2A0AD3F7680A3A02EB420293409F4370
:1006F0008B6893401F43F76008E0376902EB4202C2
:1007000093409F438B6893401F4337610A68102AC8
:1007100001D0112A20D1124B02689A4217D1936856
:100720001B0219D4936843F40003936009681029ED
:1007300012D10C490C4A0968B1FBF2F101EB8101BD
:10074000490000E0491E00910029FBD104E0816AC4
:1007500041F020018162012480F824502046F8BD38
:10076000002401402000002040420F000068C06CBF
:10077000704700002DE9F04104004FF000057FD0E4
:10078000A06A002628B9E66284F82460204600F0BA
:1007900081F82046FFF79EFDA16AC90600D420B16A
:1007A000A06A40F01000A0626AE0A16A21F48851BA
:1007B00041F00201A162334923688B42E16904D10F
:1007C000B1F5402F01D14FF40021277B4FF4807CFD
:1007D00041EA470261680A43A168614508D00129DE
:1007E00006D0002194F814E0BEF1010F02D00AE017
:1007F0006146F7E7C7B1A76A47F02007A762E76A33
:1008000047F00107E7625F6827F469470F435F60BD
:10081000236899681C4F394011439960A16861456C
:100820000BD0012909D00CE0DFF860E0A7690EEBDE
:1008300047370F4347F40061E5E7218A0D05A5F529
:1008400080152168CB6A23F470032B43CB622168A7
:1008500089680F4B1940914208D1E662A16A21F0E4
:10086000020141F00101A162BDE8F081A06A20F01F
:10087000020040F01000A062E06A40F00100E06277
:100880000120F1E7003C0140FDF7E1FF00E0FFFF40
:10089000FE0E1FFF00B585B000210091019102916D
:1008A000039100680E49884218D10E48816941F4CD
:1008B00000718161816901F400710491816941F0E5
:1008C000040181618069694600F0040004901020F1
:1008D000009003200190044800F0B4F905B000BD79
:1008E0000024014000100240000801402DE9F843B7
:1008F00000270D460446009700F0A0FA80462068C5
:100900008168C90508D5A06A40F02000A06284F87B
:1009100024700120BDE8F8834168C90503D4C06A8A
:1009200010F4700F2AD0022000F0FCFE3B49096849
:10093000B1FBF0F62068036939490B424FEA6101C7
:100940004FEAA1121FD1C3684FEA611C13EA0C0FD2
:1009500019D103690B4225D1C068104222D114205D
:1009600023E0681C0AD02DB100F068FAA0EB080063
:10097000A84203D920680068800725D52068006850
:100980008007EED52DE003690B4202D1C168114208
:1009900006D0026923490A4206D1C068084203D141
:1009A000542002E0292000E0FC204643009816E095
:1009B000681C11D02DB100F041FAA0EB0800A8424C
:1009C0000AD90098B04207D2A06A40F00400A062A1
:1009D00084F8247003209DE70098401C0090B042EA
:1009E000E6D321686FF012000860A06A40F400703E
:1009F000A06220688068C0F3424007280CD1207BA9
:100A000050B9A06A20F48070A062A06AC00403D428
:100A1000A06A40F00100A06200207BE720000020D7
:100A2000244992244992240070B5044690F8240089
:100A300001280DD0012084F824002046FFF776FC21
:100A400002004FF0000005D084F82400104670BD6D
:100A5000022070BDA16A40F20123994341F48071E4
:100A6000A1621F4D23681F49AB4218D10E6816F4CE
:100A7000702F14D0A66A46F48016A6620E6876051A
:100A800005D5A66A26F4005646F48056A662A66AE4
:100A9000F6040AD5E66A26F00606E66206E0A66ACD
:100AA00026F48016A6625E68E9E7E06284F8240016
:100AB0006FF00200186020688368C3F34243072B7D
:100AC00005D1A84208D1096811F4702F04D08168BB
:100AD00041F480118160B9E7816841F4A001F9E730
:100AE00000280140042401402DE9F05F90F8211016
:100AF0000024022903D004218163012485E00168D8
:100B00000A6822F00E020A6001680A6822F00102F7
:100B10000A603F4E3E4FB215DFF8F4C0DFF8F090A8
:100B2000DFF8ECA0DFF8E8B0DFF8E4E00168783F38
:100B300013011502ACF1640CA9F15009AAF13C0AA9
:100B4000ABF1280BAEF1140E4FF48018B14227D947
:100B5000B9420ED0614512D049451DD0514518D03B
:100B6000594518D0714501D1424615E0294EB14290
:100B700001D1012210E0274E1436B14201D11022DA
:100B80000AE0244E2836B14206D0224A3C32914235
:100B900001D11A4600E02A461E49091F0A602BE0CF
:100BA000B94213D0614517D0494522D051451DD0D7
:100BB00059451DD0714501D142461AE0B14202D1DA
:100BC0004FF0807215E0134EB14201D1012210E0C6
:100BD000104E1436B14201D110220AE00D4E2836D3
:100BE000B14206D00B4A3C32914201D11A4600E094
:100BF0002A46074980394A60012180F821100021E6
:100C000080F82010416B01B188472046BDE8F09F75
:100C1000800002400804024090F821007047000064
:100C200070B5044600F00AF90546601C02D004487D
:100C30000078044400F002F9401BA042FAD370BDD2
:100C4000140000202DE9F84FDFF8C891002409F1C5
:100C5000040A0AF1040B23460F270BF1040ED1E01E
:100C60000125A54006EA0502AA4276D1DFF8A8C10F
:100C70004E68A6EB0C0866452BD00DDC032E34D055
:100C800005DC36B3012E19D0022E2FD11BE0112E18
:100C900016D0122E2AD119E0B8F5881F19D006DC1B
:100CA000B8F5803F15D0B8F5801F1FD111E0B8F519
:100CB000001F0ED0B8F5041F18D10AE0CB6815E06C
:100CC000CB681B1D12E0CB6808330FE0CB680C33F8
:100CD0000CE08B682BB1012B4FF0080303D045616A
:100CE00004E0042302E0056100E00023FF2A01D8AC
:100CF000064601E000F104064FEA840501D9A5F19A
:100D00002005D6F8008007FA05FC28EA0C0803FA4B
:100D100005F548EA0508C6F800804D68ED0070D575
:100D20003E4DAE6946F00106AE61AD6924F00306A2
:100D300005F0010500953A4D06EB050CDCF808506E
:100D4000A607360F07FA06F825EA0805DFF8D4806B
:100D5000404503D14FF0000825E052E0DFF8C8809D
:100D6000404502D14FF001081DE0DFF8C08040454A
:100D700002D14FF0020816E0DFF8B480404502D1FE
:100D80004FF003080FE0DFF8AC80404502D14FF090
:100D9000040808E0DFF8A080404502D14FF00508C4
:100DA00001E04FF0060808FA06F848EA0508CCF812
:100DB00008804D68D9F80060ED034D4601D5164313
:100DC00000E096432E604D68DAF80060AD035546AA
:100DD00001D5164300E096432E604D68DBF80060B5
:100DE000ED025D4601D5164300E096432E604D6846
:100DF000DEF80060AD02754601D5164300E096436B
:100E00002E60641C0A681646E2407FF429AFBDE8F4
:100E1000F88F000000040140000011100010024093
:100E20000000014000080140000C0140001001409A
:100E30000014014000180140001C01400148806876
:100E40007047000014000020704770472DE9F047FC
:100E5000026800215368C66A90F83E4090F83D5001
:100E6000102C12D0402C10D0046C002C7DD0546972
:100E7000E443A6077AD4DE43B60577D4036C03B106
:100E80009169BDE8F04701F061BE976951694FF47F
:100E90002A0CC9435FEAC1784FF02A4904D066455D
:100EA0002AD04E4528D010E0DE43B6050DD4C16AE5
:100EB000614501D1012103E0C16A494501D1082101
:100EC000C162BDE8F04701F0ABBD0E0716D4DE43AA
:100ED000B60513D4416CC9B21161416B09B1896A7D
:100EE00029B9816B002907D0896A002904D00068DC
:100EF000416841F400614160BDE8F0878E0706D487
:100F0000DE43B60503D4BDE8F04701F0DDBCFE4387
:100F1000526876074FEA02521DD4002AECDB0A061B
:100F200008D4DA43520505D4490705D5BDE8F04792
:100F300001F06EBC4907DFD4D9438905DCD4212DEB
:100F400005D0402CD8D1BDE8F04701F0AFBDBDE8D9
:100F5000F04701F01BBC002ACEDB4A060BD4DA4373
:100F6000520508D4490708D501E00DE00EE0BDE8C0
:100F7000F04701F0D3BA4907BED4D9438905BBD4A1
:100F8000BDE8F04701F061BA916970E7E10606D467
:100F9000D943890503D4BDE8F04701F0FBBD282102
:100FA000212D27D0292D25D0650655D4DD436D058B
:100FB00052D4640752D590F83D30448D002C9BD01C
:100FC0001269446A2270426A521C4262428D521E69
:100FD0004285428D002A8FD12A2B8DD10268536819
:100FE00023F4806353602222026380F83D1000F0F6
:100FF000FFFA81E7250623D4DD436D0520D464077D
:1010000020D590F83D30448D002CF2D0446A2478ED
:101010001461426A521C4262428D521E4285428DC8
:10102000002AE6D1292BE4D10268536823F48063B7
:1010300053602122026380F83D1000F0DAFA5BE78A
:101040006107D6D4D9438905D3D4418D0029D0D0A6
:10105000416A097811610AE06107CAD4D943890558
:10106000C7D4418D0029C4D01169426A1170416A08
:10107000491C4162418D491E41853DE77047000092
:1010800070B5040025D094F83D00002520B984F8FF
:101090003C50204600F076FA242084F83D00206879
:1010A000016821F0010101602068016841F40041FC
:1010B00001602068016821F40041016000F0A8FC93
:1010C0004D4A6168914201D84C4900E04C49884240
:1010D00001D2012070BD4B492368B0FBF1F15E687D
:1010E00026F03F060E435E606368934206D94FF4D4
:1010F000967359434FF47A73B1FBF3F12368491C9B
:101100001E6A26F03F06314319626168914210D889
:101110004900401EB0FBF1F2521CC2F30B02042A3C
:1011200001D2042022E0B0FBF1F0401CC0F30B0020
:101130001CE0A268F2B301EBC10303EB0116431EEE
:10114000B3FBF6F35B1C43F480431B0549D092B319
:1011500001EBC10202EB0111401EB0FBF1F0401C9B
:10116000C0F30B0040F4804040F400402168CA699D
:101170004CF6FF739A431043C861D4E9071001434A
:101180002068026822F0C00211430160D4E9030123
:1011900001432068826848F2FF339A43114381601B
:1011A000D4E9050108432168CA6822F0FF02104310
:1011B000C86001E00EE016E02068016841F001011E
:1011C00001602564202084F83D00256384F83E50AA
:1011D000002070BD01EB4106431EB3FBF6F35B1C20
:1011E000B3E70120C2E701EB4101401EB0FBF1F083
:1011F000401CC0F30B00B7E7A086010080841E00EE
:1012000000093D0040420F007047704770470000E2
:101210002DE9F84F0025DDF82890984617468A46B4
:1012200004460095FFF70AFE064694F83D00202884
:101230007AD11923012283492046009601F07EFDD0
:101240000028F5D194F83C0001286DD0012084F8E5
:101250003C0020680168C90703D1016841F0010121
:1012600001602068016821F400610160222084F897
:101270003D00102084F83E0025646762A4F82A80AF
:10128000608D20857048E06233464A4651462046CC
:1012900001F0B8F900287DD1208DDFF8B08120273A
:1012A00068B1012814D00228206801681ED041F4DA
:1012B000806101602068416980690090B5E0206824
:1012C000416981690091016841F400710160ACE0FD
:1012D0002068016821F48061016072B6206841696C
:1012E00081690091016841F400710AE041F40061F4
:1012F000016072B62068416981690091016821F43A
:101300008061016062B690E0032868D801280CD0A3
:1013100002284B464FF000024146204600960FD06F
:1013200001F00CFDB0BB10E08AE032464946204691
:1013300001F083FD70BB20680069616A08706BE092
:1013400001F0FCFC30BB72B634E02068016821F487
:101350008061016072B620680069616A0870606A25
:10136000401C6062208D401E2085608D401E60857F
:10137000374846F2A8110068B0FBF1F0C0EBC0009E
:1013800000EB80000090401E009008D0206840696B
:10139000C04300E029E040070CD50098F3E744F88B
:1013A000305F6773A573206940F02000206162B64A
:1013B00025731AE02068016841F40071016020681B
:1013C0000069616A0870606A401C6062218D491E74
:1013D0002185618D491E618562B621681AE0324619
:1013E0004946204601F029FD10B10120BDE8F88FE3
:1013F00020680069616A0870606A401C6062218D23
:10140000491E2185618D491E618521684A69D24343
:1014100052070AD409690170606A401C6062208D1D
:10142000401E2085608D401E6085208D00287FF441
:101430006BAF84F83D7084F83E5084F83C50D5E79B
:101440000220D3E7020010000000FFFF04000100AB
:10145000200000202DE9F84F1F4690468A4604469A
:10146000DDF82890FFF7EAFC054694F83D002028B7
:101470007FD11923012240492046009501F05EFCEE
:10148000002876D194F83C00012872D0012084F81D
:101490003C0020680168C90703D1016841F00101DF
:1014A00001602068016821F400610160212084F856
:1014B0003D00102084F83E0000262664C4F82480F5
:1014C0006785608D20852D48E0622B464A4651464F
:1014D000204601F00DF990B92068416980690090BB
:1014E00036E02A464946204601F0DAFC50B1206C2D
:1014F000042804D12068016841F4007101600120D2
:10150000BDE8F88F606A216800780861606A401C55
:101510006062618D491E6185218D491E89B22185D8
:1015200022685369DB435B070BD451B1007810612B
:10153000606A401C6062608D401E6085208D401E88
:1015400020852A464946204601F0D2FB0028CED10C
:10155000208D0028C5D154F83D0B016841F400717D
:101560000160202004F81E09E67766770020C7E7AF
:10157000FFE70220C4E70000020010000000FFFFA8
:101580007047704710B586B000210091019102911B
:10159000039100681349884222D1134CA06940F09E
:1015A0000800A061A069694600F008000490C0200E
:1015B000009012200190032003900C48FFF742FB9B
:1015C000E06940F40010E061E069002200F40010DE
:1015D000049011461F2000F073F81F2000F062F8FD
:1015E00006B010BD0054004000100240000C014045
:1015F00070477047024881680278114481607047E3
:1016000014000020074810B5016841F01001016086
:10161000032000F075F80F2000F006F800F024F821
:10162000002010BD0020024070B50D4D04464FF45F
:101630007A712878B1FBF0F00A490968B1FBF0F043
:1016400000F0CCFB48B9102C07D200222146501ED6
:1016500000F036F800206C6070BD012070BD000005
:1016600014000020200000200C4808B5816941F0DA
:1016700001018161816901F001010091C16941F0BD
:101680008051C161C06900F08050009004484168F9
:1016900021F0E06141F00071416008BD001002409E
:1016A00000000140002809DB00F01F0201219140E9
:1016B0004009800000F1E020C0F8001170470000F0
:1016C000F0B40E4B1B680C46C3F30223C3F10705AD
:1016D000042D00D90425191D072901D2002300E09B
:1016E000DB1E012606FA05F1491E214099409E4065
:1016F000761E16403143F0BC01F0BEBE0CED00E09A
:10170000064900F0070208684FF6FF03184040EA58
:101710000220034A10430860704700000CED00E00F
:101720000000FA0510B52CA401461DCC86B08DE84A
:101730001D002DA02D4C00680490002004292FD0FE
:101740000BDC01292FD0022928D100F071F9616842
:10175000C1F38131491C49001EE0082920D010291D
:101760001CD161682268D20118D5C1F38342C90334
:101770001DF8020009D5616804AAC1F34041515C1B
:101780001B4AB2FBF1F1484301E01A494843616842
:10179000490203D440000321B0FBF1F006B010BDB4
:1017A00000F056F9FAE7226AC2F30121012903D1B8
:1017B000920701D5C803F1E7022905D1626A9207B1
:1017C00002D549F64040E9E70329E7D121688903BA
:1017D000E4D54FF22440E1E70203040506070809B7
:1017E0000A0B0C0D0E0F1010010200000010024039
:1017F00000127A0000093D002DE9F8430546007803
:10180000354CC00754D0E0690026C00008D4E06918
:1018100040F08050E061E069012600F080500090C7
:101820002E480168C90512D40168804641F48071D0
:101830000160FFF703FB074605E000BFFFF7FEFA74
:10184000C01B642823D8D8F80000C005F6D5206A4C
:1018500010F4407021D0A98801F4407181421CD05D
:10186000206A1F49012220F440700A6000220A60A9
:101870002062C00711D0FFF7E1FA074641F288382D
:1018800008E000BFFFF7DAFAC11B414502D9032087
:10189000BDE8F883206A8007F4D5206A696820F4DF
:1018A0004070084320621EB1E06920F08050E06182
:1018B0002878800705D56068A96820F4404008436F
:1018C00060602878C00605D56068696920F48000EA
:1018D000084360600020DBE7001002400070004019
:1018E000400442422DE9F0470F46050061D0434EC7
:1018F000306800F00700B84209D2306820F00700D5
:1019000038433060306800F00700B84251D1286891
:101910003B4C810712D5400703D5606840F4E06076
:1019200060602878000703D5606840F4605060600C
:101930006068A96820F0F000084360602878C0075C
:1019400028D06868012810D02168022810D08907A3
:1019500000292EDA616821F0030101436160FFF77D
:101960006DFA804641F288390DE021688903EFE77E
:101970008901EDE7FFF762FAA0EB0801494502D9BA
:101980000320BDE8F0876068696800F00C00B0EBE8
:10199000810FEFD1306800F00700B8420BD93068F2
:1019A00020F0070038433060306800F00700B8428C
:1019B00001D00120E5E72878400705D56068E9688F
:1019C00020F4E060084360602878000706D560686E
:1019D000296920F4605040EAC100606000F038F8E6
:1019E0006168084AC1F30311515CC84006490860A8
:1019F00006480068FFF718FE0020C2E700200240FA
:101A000000100240124200082000002018000020B0
:101A10000448054900684968044AC1F30221515C41
:101A2000C8407047200000200010024022420008F9
:101A30000448054900684968044AC1F3C221515C61
:101A4000C8407047200000200010024022420008D9
:101A500012A185B00FC98DE80F0014A0144A0068C8
:101A600004905168134801F00C03042B10D0082B8C
:101A70000ED1C1F38343C9031DF803000AD5516891
:101A800004AAC1F34041515C0A4A5043B0FBF1F053
:101A900005B0704708494843FAE70000020304050F
:101AA000060708090A0B0C0D0E0F101001020000AA
:101AB0000010024000127A0000093D002DE9F84FA5
:101AC000040070D02078C04DC00749D06868C0F3CA
:101AD0008100012807D06868C0F38100022809D17D
:101AE0006868C00306D52868800339D56068002877
:101AF000E7D035E06068B0F5803F0BD010B1B0F5AD
:101B0000A02F11D0286820F480302860286820F4A5
:101B1000802002E0286840F480302860606890B13E
:101B2000FFF78CF906460AE0286840F48020286018
:101B3000F0E700BFFFF782F9801B642873D828689C
:101B40008003F7D50CE0FFF779F9064605E000BF02
:101B5000FFF774F9801B6428F0D828688003F7D455
:101B600020789A4E80074FF001094FF0000839D5D0
:101B7000686810F00C0F07D06868C0F38100022875
:101B800009D16868C00306D42868800714D5206985
:101B9000012808D110E02069B0B1C6F80090FFF725
:101BA0004DF9074605E00AE1FFF748F9C01B022896
:101BB000C4D828688007F7D52868616920F0F80044
:101BC00040EAC10028600DE0C6F80080FFF736F952
:101BD000074604E0FFF732F9C01B022823D8286823
:101BE0008007F7D4207800072CD57948A169D9B1AE
:101BF000C0F80090FFF722F9074604E0FFF71EF94E
:101C0000C01B02280FD8686A8007F7D571484FF4C7
:101C1000FA510068B0FBF1F0009000BF0098411E3F
:101C20000091FAD20EE080E0C0F80080FFF706F9DC
:101C3000074604E0FFF702F9C01B022875D8686A5E
:101C40008007F7D42078400760D5E8690027C000F6
:101C500008D4E86940F08050E861E869012700F0A5
:101C6000805000905C480168C90513D40168834620
:101C700041F480710160FFF7E1F8824606E000BFA1
:101C8000FFF7DCF8A0EB0A0064284ED8DBF8000070
:101C9000C005F5D5E06801280AD008B1052813D0A1
:101CA000286A20F001002862286A20F0040002E07F
:101CB000286A40F001002862E06841F2883B98B150
:101CC000FFF7BCF882460BE0286A40F00400286267
:101CD000EEE700BFFFF7B2F8A0EB0A0159455AD86A
:101CE000286A8007F6D50CE0FFF7A8F8824605E0E1
:101CF000FFF7A4F8A0EB0A0159454CD8286A8007E1
:101D0000F6D41FB1E86920F08050E861E06988B33B
:101D10006968C1F38101022944D00228C6F86080B5
:101D200004D0FFF78BF8044638E034E0FFF786F87C
:101D3000074604E0FFF782F8C01B02282BD828686A
:101D40008001F7D4206AB0F5803F05D16868A168AA
:101D500020F4003008436860D4E90801084369684A
:101D600021F4741108436860C6F86090FFF766F8C4
:101D7000044606E025E000BFFFF760F8001B0228DC
:101D800009D828688001F7D51BE000BFFFF756F897
:101D9000001B022802D90320BDE8F88F28688001C3
:101DA000F4D40EE00128F7D06868226A00F480318C
:101DB000914204D1616A00F47010884201D0012080
:101DC000EAE70020E8E7000000100240000042427D
:101DD00080044242200000200070004010B5401EE8
:101DE000B0F1807F01D3012010BD4FF0E02460618D
:101DF0000F21601701F040FB0020A0610720206147
:101E0000002010BD70B590F83C20012A2CD0012490
:101E100080F83C40022280F83D2003685A689D68A3
:101E200022F070060A6832435A60104B02689A42E8
:101E30000ED00F4B9A420BD0B2F1804F08D00D4B11
:101E40009A4205D00C4B9A4202D00C4B9A4204D1D4
:101E5000496825F080031943916080F83D400021D6
:101E600080F83C10084670BD022070BD002C014077
:101E7000003401400004004000080040000C004015
:101E800010B5040003D094F83D0010B107E0012024
:101E900010BD002084F83C00204600F01FF802200E
:101EA00084F83D00211D206801F076F9012084F8B6
:101EB000460084F83E0084F83F0084F8400084F82F
:101EC000410084F8420084F8430084F8440084F818
:101ED000450084F83D00002010BD000008B50068F2
:101EE000B0F1804F08D10548C16941F00101C161DD
:101EF000C06900F00100009008BD00000010024021
:101F000070B5044690F83C00012817D0012584F8EC
:101F10003C50022084F83D002068826822F077025D
:101F200022F47F4282600868502830D00DDC2028DF
:101F30004DD005DC98B310283BD148E0022070BD9D
:101F4000302844D0402834D139E0602828D0702887
:101F500006D0B0F5805F2CD0B0F5005F29D10AE043
:101F6000CB68D1E90121206801F069F92068816816
:101F700041F0770109E0CB68D1E90121206801F047
:101F80005EF92068816841F48041816011E0CA688F
:101F90004968206801F028FA5021206807E016E01F
:101FA000CA684968206801F030FA6021206801F0B1
:101FB00050F984F83D50002084F83C0070BDCA6898
:101FC0004968206801F010FA40212068EFE7226894
:101FD00001461046EBE7000000B585B000210091F6
:101FE0000191029103910068B0F1804F11D10A482C
:101FF000816941F0040181618069694600F0040053
:1020000004900C2000900220019003900348FEF7FA
:1020100019FE05B000BD000000100240000801409C
:1020200070B5044690F83C000D4601280AD0012006
:1020300084F83C0042B1042A18D0082A2AD00C2A7D
:102040004DD139E0022070BD206801F00BF9206805
:10205000816941F0080181612068816921F00401F2
:102060008161206881692A69114311E0206801F0CB
:1020700029F92068816941F40061816120688169E2
:1020800021F480618161206881692A6941EA022125
:10209000816124E0206801F04BF92068C16941F0BA
:1020A0000801C1612068C16921F00401C161206893
:1020B000C1692A69114311E0206801F06DF92068B7
:1020C000C16941F40061C1612068C16921F4806186
:1020D000C1612068C1692A6941EA0221C161002009
:1020E00084F83C0070BD10B5040003D094F83D00A6
:1020F00010B107E0012010BD002084F83C0020460C
:1021000000F01EF8022084F83D00211D206801F037
:1021100043F8012084F8460084F83E0084F83F002C
:1021200084F8400084F8410084F8420084F84300B9
:1021300084F8440084F8450084F83D00002010BD78
:102140007047000010B50446022249B104290ED0A0
:10215000082913D094F84100012816D0012010BDA1
:1021600094F83E000128F9D184F83E200FE094F85D
:102170003F000128F2D184F83F2008E094F84000A5
:102180000128EBD184F8402001E084F841200122AD
:10219000206801F047F813492068134A884201D0AB
:1021A000904203D1436C43F4004343642068884267
:1021B0000DD090420BD0B0F1804F08D00B4988422F
:1021C00005D00B49884202D00A49884204D181686F
:1021D00001F00701062903D0016841F00101016007
:1021E000002010BD002C01400034014000040040DC
:1021F00000080040000C0040FEE700000148FEF728
:1022000025BE0000A400002038B5406A002190F8E7
:102210003D202B4B46F2A8141B68B3FBF4F3C3EB31
:10222000C30303EB830300933BB15B1E009303687E
:102230001B689B0505D5009BF6E7036C43F0200364
:102240000364436B03B19962836B03B199620368C2
:102250001C6824F480641C604185436B03B159639E
:10226000836B03B1596303681C6824F001041C608C
:1022700090F83D402023602C0BD0282434EA020241
:102280000FD080F83D3080F83E1000BFFEF7F6FE1C
:1022900038BD80F83D3080F83E100164FEF7D4FD73
:1022A00038BD0268136843F00103136002681368C5
:1022B00043F480631360016380F83D40E6E700006B
:1022C0002000002070B5044690F83D0094F83E10C0
:1022D000102901D0402906D1222804D121680A689A
:1022E00022F400620A60282131EA00024FF0000562
:1022F0004FF0200626D021684968090505D46028DA
:1023000003D084F83D6084F83E502563206841681E
:10231000090537D5416821F400614160606B3D4992
:1023200090F82120012A11D04163606BFEF7DCFB9D
:1023300038B32068016821F00101016084F83D6034
:10234000606B1CE0256384F83D10DFE7A06B416300
:10235000A06BFEF7C9FBA0B120684169C9434906DB
:1023600005D40069616A0870606A401C6062206878
:10237000016821F00101016084F83D60A06B416BB0
:10238000884710E094F83D10602910D04169C94396
:10239000490605D40069616A0870606A401C606281
:1023A0002046FEF76BFE206CC1071CD115E084F8B7
:1023B0003D6025644169C943490605D40069616AE5
:1023C0000870606A401C60622068016821F00101A9
:1023D00001602046FEF738FDE5E7810703D4410799
:1023E00001D4000704D52068416821F4E061416010
:1023F00094F83D00216C49070BD5282809D10648DF
:10240000E062256384F83D6084F83E502046FEF784
:10241000FBFE70BD092200080000FFFF01684A6949
:10242000D24352050FD46FF480624A61002140F814
:10243000301F202242738173026942F0040202615C
:102440000173012070470020704710B5C26A438DA8
:102450000168042B06D0438D032B08D0438D022B3B
:102460001DD012E04A6822F480624A600CE04B689A
:1024700023F480634B60042A06D0022A04D001684A
:102480000A6822F480620A6001680969426A117070
:10249000416A491C4162418D491E418510BD012A96
:1024A00030D0102A2ED0042A30D0022A2ED00A682A
:1024B00042F400720A6001680969426A1170416A57
:1024C000491C4162428D521E4285026812690A709F
:1024D000416A491C4162418D491E418501684A6833
:1024E00022F440724A60202180F83D1090F83E208E
:1024F0000021402A80F83E100CD012210163FEF723
:1025000084FE10BD0A6822F48062D3E70A6842F4B0
:102510008062CFE70163FFF733F810BD38B590F85C
:102520003D10222914D1418D032912D9016809696E
:10253000426A1170416A491C4162418D491E4185C0
:10254000418D032904D10068416821F48061416014
:1025500038BDC26A022AFBD0012901D00029F7D177
:10256000274946F2A81300220968B1FBF3F101EBF9
:102570008101009101682023009C641E009422D0F8
:102580000C68A405F8D40C6824F480640C6001681D
:102590004C6824F4E0644C6001680969446A217065
:1025A000416A491C4162418D491E418580F83D3098
:1025B00090F83E1080F83E2040291DD01221016382
:1025C000FEF723FE38BD046C44F0200404644C681C
:1025D00024F4E0644C6001680969446A2170416A2E
:1025E000491C4162418D491E418580F83D3080F88B
:1025F0003E20FEF743FD38BD0263FEF7C1FF38BD44
:10260000200000202DE9F84F0446C06A1E4693467C
:102610000D4621680A6842F480620A60082807D0E3
:10262000012805D010F5803F02D0206B112804D17D
:102630002068016841F4807101604FF001195B4628
:10264000002249462046009600F078FB4FF40078BF
:1026500040B120680068C00501D5C4F8408003205F
:10266000BDE8F88F2069DFF884A0B0F5804F0FD067
:102670000620216800EAD51747F0F00008613346CC
:102680005A460AF10601204600F08CFB58BB03E0D5
:10269000E8B240F001001CE02168E8B2086133466E
:1026A0005A465146204600F07DFBE0B9206841695A
:1026B00081690091016841F4807101605B460022EC
:1026C00049462046009600F039FB0028C1D147F06A
:1026D000F1002168086133465A465146204600F011
:1026E00061FB0028BCD00120BAE700000200010015
:1026F000F8B50446C06A1E460D461746082807D09E
:10270000012805D010F5803F02D0206B122804D19B
:102710002068016841F480710160134600224FF087
:1027200001112046009600F009FB40B120680068C6
:10273000C00502D54FF4007020640320F8BD206965
:10274000B0F5804F0ED00620216800EAD51040F089
:10275000F000086133463A460B49204600F022FB60
:1027600078B902E005F0FE0000E0E8B221680861F7
:10277000054933463A46891F204600F013FB0028DE
:10278000DCD00120F8BD00000800010010B5C26ACD
:1027900090F83D1021290BD1418D51B1416A026859
:1027A00009781161416A491C4162418D491E418588
:1027B00010BD20230021082A13D0202A11D012F5A1
:1027C000803F0ED00268546824F4E0645460112203
:1027D000026380F83E1080F83D3000BFFEF716FD22
:1027E00010BD0268546824F4E06454600268146800
:1027F00044F400741460016380F83D3090F83E208A
:1028000080F83E10402AE9D1FEF7BBFE10BD000063
:1028100010B590F83D1090F83E30C26A048DB4B106
:10282000212903D0402B11D122290FD1418DE1B3B1
:1028300090F83E10402942D0416A0268097811613F
:10284000416A491C4162418D491E418510BD2129C3
:10285000E8D120230021082A13D0202A11D012F514
:10286000803F0ED00268546824F4E0645460112262
:10287000026380F83E1080F83D3000BFFEF7C6FCD2
:1028800010BD0268546824F4E0645460026814685F
:1028900044F400741460016380F83D3090F83E20E9
:1028A00080F83E10402AE9D100E002E0FEF769FE20
:1028B00010BD0068416821F48061416010BDBDE831
:1028C000104000F0F3B8000078B590F83E50C26AAE
:1028D000046B90F83D6000230168222E73D1066DD1
:1028E0000EB9402D6FD0056D1DB90569B5F5404F86
:1028F0001BD0458D95B3468D484D012E20D0448D7B
:10290000022C4DD00C6844F480640C6001684C6863
:10291000240579D5AA4273D0012A71D0082A6FD034
:10292000102A6DD0202A6BD06EE04A698A69009225
:102930000A6842F480720A60016D491C016578BD25
:10294000AA4214D10A6822F480620A6001684A68C7
:10295000120504D50A6822F4806217E0FFE74A698D
:102960008A6900920A6842F400720A6050E0082AFC
:1029700010D0202A0ED0122C0AD0042A03D0022A0A
:1029800001D0102AE6D10A6842F480620A603BE076
:10299000012ADFD00A6822F480620A600168DEE75B
:1029A000042A11D0022A0FD0102A0DD00C6844F44A
:1029B00000640C6001684C698C6900940C6824F414
:1029C00080640C6008E025E00C6844F480640C60CE
:1029D00001684C698969009101684C68240517D524
:1029E000AA4207D0012A05D0082A03D0102A01D014
:1029F000202A0DD14A6842F480524A6008E0FFE77D
:102A00004A6842F480524A6001684A6989690091C3
:102A1000036578BD48698869009078BD0000FFFFB4
:102A200090F83E10402910D00169B1F5804F19D0BF
:102A3000016DA9B3016D012910D1416C5FF0F10264
:102A400001F4407142EAD11106E0016D0029416CA8
:102A500005D0C9B241F0010100680161704701F081
:102A6000FE01F9E790F83D102129416C09D0C9B267
:102A700041F0010102681161416B29B1896A49B9CC
:102A800002E001F0FE01F5E7816B0029E6D0896ADA
:102A90000029E3D00068416841F40061416070475B
:102AA000FFE7416CF02201F44071CBE710B590F8DC
:102AB0003D10026D22B3026D012A2FD0026D022A51
:102AC0001DD122292FD0428D0AB1212933D0428D28
:102AD000002A14D1212912D101684A6822F4E06247
:102AE0004A6001680A6842F400720A6000210163CA
:102AF000202280F83D2080F83E10FEF742FD10BDF8
:102B0000C16C0129816C02D0C1F3072108E0026881
:102B1000C9B21161016D891C016510BD816CC9B21A
:102B20000268116104E001680A6842F480720A6078
:102B3000016D491CF0E7416A026809781161416A38
:102B4000491C4162418D491E418510BD38B50C4676
:102B500090F83D2000212825954302680B4605D0BA
:102B600051699169009180F83C3038BD556825F471
:102B700080655560E243540700D50121120601D556
:102B8000828900E0028B80F83C3092B2FEF75DF95A
:102B900038BD0000F8B590F83D6004460068416813
:102BA00021F4E061416020680025416900910168DD
:102BB00041F0010101602068016821F48061016039
:102BC00020684168090520D5474F222E48D02A2E7B
:102BD00046D0616B096849686185618D19B1216CC6
:102BE00041F004012164416821F400614160606B9F
:102BF000FEF712F8012808D0606B4763606BFDF7A1
:102C000073FF10B1606B416B8847608D08B320681B
:102C10004169C943490708D40069616A0870606A5C
:102C2000401C6062608D401E608520684169C94318
:102C3000490608D40069616A0870606A401C6062D5
:102C4000608D401E6085608D18B1206C40F00400DE
:102C50002064206C00B32046BDE8F840FFF732BB8B
:102C6000A16B096849686185618D19B1216C41F0DA
:102C700004012164416821F400614160A06BFDF70B
:102C8000CBFF0128C1D0A06B4763A06BFDF72CFFE1
:102C90000028BAD0A06BB6E72A2E06D125632820DB
:102CA00084F83D002046FEF7A3FC94F83D10202058
:102CB00028290DD0216B222901D0222E07D125638E
:102CC00084F83D0084F83E502046FEF791FCF8BDA4
:102CD0000649E162256384F83D0084F83E502046B1
:102CE000FEF792FAF8BD0000092200080000FFFF7D
:102CF00070B516460D4604460DE02046FFF78EFBE4
:102D000008B1012070BD681C05D0FEF797F8801B44
:102D1000A84207D835B120684069C0434007ECD4C9
:102D2000002070BD002044F8300F20216173A07393
:102D3000216941F0200121612073E2E72DE9F0478C
:102D40001E4690460D460446C1F30747DDF8209025
:102D500008E0701C06D0FEF771F8A0EB0900B04245
:102D60000FD876B12068012F18D0806925EA0000BD
:102D70000004000C14D000214145EAD00020BDE839
:102D8000F087002044F8300F20216173A07321697F
:102D900041F02001216120730120F0E74069E5E75F
:102DA0000121E9E72DE9F0479A4691460E4604468F
:102DB00000254FF02008C1F3074725E0206840694F
:102DC000C043400514D42068016841F400710160DB
:102DD00021686FF480604861256384F83D8084F841
:102DE0003E50206C40F00400206484F83C501FE00A
:102DF000B9F1FF3F08D0FEF721F8A0EB0A014945E1
:102E00000CD8B9F1000F09D02068012F13D08069C8
:102E100026EA00000004000C0BD0CFE744F8305F36
:102E200084F80D80A573206940F02000206125738F
:102E30000120BDE8F0874069EAE72DE9F04100256F
:102E400090460E460446202717E04069C043C0065E
:102E50000CD454F8301B6FF01000486144F810593E
:102E60006777A577206A2062257717E0FDF7E6FFF0
:102E7000A0EB0800B04208D83EB120684169C943C0
:102E80004906E2D40020BDE8F08144F8305F677362
:102E9000A573206940F02000206125730120F2E72E
:102EA00070B516460D4604460DE02046FFF7B6FA0B
:102EB00008B1012070BD681C05D0FDF7BFFF801B65
:102EC000A84207D835B120684069C0430006ECD459
:102ED000002070BD002044F8300F20216173A073E2
:102EE000216941F0200121612073E2E73EB5002114
:102EF0001148009101910F4A029102600124816002
:102F0000047301754FF460220461C2614160FDF7F2
:102F100031FC08B1FDF73EFB0420CDE90004072099
:102F2000029069460448FDF7A3FB002801D0FDF795
:102F300031FB3EBD0024014074000020094808B563
:102F4000816941F004018161816901F0040100910E
:102F5000816941F008018161806900F008000090FA
:102F600008BD0000001002400D4810B50B4901607B
:102F70000C49416000214FF480428160C0E9031296
:102F800041618161C1610162FEF77AF8002803D0D6
:102F9000BDE81040FDF7FEBA10BD0000005400402F
:102FA000A4000020A086010010B58EB00024079474
:102FB000089409940A940B941C2168460C94FDF71C
:102FC00025F922484FF0804101604721C0E90114F2
:102FD00040F2F311C0E903148461FEF751FF08B118
:102FE000FDF7D8FA4FF48050079007A91748FEF76D
:102FF00087FF08B1FDF7CEFA1448FFF774F808B15F
:10300000FDF7C8FA0B940BA910480C94FEF7FAFED2
:1030100008B1FDF7BFFA6020CDE900040294082250
:1030200069460A480494FEF7FBFF08B1FDF7B2FABF
:103030000C2269460548FEF7F3FF08B1FDF7AAFA2E
:103040000248FEF7C9FF0EB010BD0000F8000020D6
:10305000FEE7FEE7704770B5040044D0206B606364
:10306000E56A2563C4E905120846114600F0BEFF73
:103070000646E0623146206800F0BAFE2062314622
:10308000606800F0B5FE616A00F014FD60622946D8
:10309000304600F0ABFFA16800F0AAFEA0622169F3
:1030A00000F072FF206908D380F00040A16A00F0B0
:1030B0006BFF03D2206980F00040A062D4E90801D0
:1030C00000F0F8FCA16A00F0F5FCE061E16800F0B6
:1030D0005BFFE0680CD380F00040E16900F054FF32
:1030E00003D3E06970BD002070BDE06880F000404F
:1030F000E06170BD30B50028DDE903540AD00461F9
:1031000080E82E000021C161816241620162416359
:103110000163C16230BD7047FEF76CBA30B595B03F
:1031200028216846FDF772F814210AA8FDF76EF809
:1031300018210FA8FDF76AF801210804CDE9001055
:103140000025029502240491CDE907404FF4E010D8
:1031500009906846FEF7B2FC08B172B6FEE70AA90C
:103160000F2081E831004FF48060CDE90D05022188
:103170000AA8FEF7B7FB08B172B6FEE74FF40040AD
:1031800011900F940FA8FEF737FB002801D072B6FC
:10319000FEE715B030BD7047F0B502681C4B1D4D01
:1031A0001D4E1E4F1E4C4FF0804C984209D0A0423D
:1031B00007D0604505D0A84203D0B04201D0B84244
:1031C00004D122F0700E4A6842EA0E02984209D0F9
:1031D000A04207D0604505D0A84203D0B04201D03C
:1031E000B84203D122F44075CA682A434D6922F0DF
:1031F00080022A4302608A68C2620A688262984238
:1032000001D0A04201D10969016301214161F0BDF2
:10321000002C01400004004000080040000C004069
:103220000034014010B501F01F030121046A9940E8
:103230008C430462016A9A401143016210BD10B5CB
:10324000846842EA032224F47F440A4322438260D2
:1032500010BD826822F070020A4342F007018160CB
:1032600070470000F0B5026A22F001020262036AB0
:1032700042688469124E24F073050C682C4323F0D5
:1032800002058B682B430D4DA84201D0B04205D1F9
:1032900023F00807CB683B4323F00403A84201D086
:1032A000B04205D14D6922F4407215438A692A4320
:1032B00042608461496841630362F0BD002C0140B3
:1032C00000340140F0B5026A22F010020262026A84
:1032D000436884690D6824F4E64444EA05248D6853
:1032E00022F0200242EA05120F4D104EA84201D0F2
:1032F000B04206D1CF6822F0800242EA071222F0E3
:103300004002A84201D0B04207D14D6923F4406386
:1033100043EA85038D6943EA850343608461496814
:1033200081630262F0BD0000002C014000340140C6
:10333000F0B5026A22F480720262026A4368C469CC
:1033400022F4007224F073050C68124E2C438D6831
:1033500042EA05220E4DA84201D0B04206D1CF6804
:1033600022F4006242EA072222F48062A84201D0DD
:10337000B04207D14D6923F4405343EA05138D69E8
:1033800043EA05134360C4614968C1630262F0BD4A
:10339000002C01400034014030B5026A22F4805212
:1033A0000262046A4268C3690D6823F4E64343EA93
:1033B00005238D6824F4005444EA0534084DA842DE
:1033C00002D0084DA84204D14D6922F4804242EA5D
:1033D00085124260C36149680164046230BD000027
:1033E000002C01400034014010B5036A046A24F047
:1033F00001040462846924F0F00444EA021423F016
:103400000A020A438461026210BD10B5036A23F008
:10341000100303628369046A23F4704343EA0232AF
:1034200024F0A00343EA01118261016210BDFEE7AE
:1034300010B508210648FEF785FE0C210448FEF76A
:1034400081FE034800210268D1630068016410BD59
:10345000F80000200088002100EB4000044AC8303A
:1034600080B21080034A1368D86310680164704703
:1034700038000020F80000200907090E002804DBAE
:1034800000F1E02080F80014704700F00F0000F118
:10349000E02080F8141D70471CB5FEF7B3F8FFF765
:1034A0003DFEFFF74BFDFFF77FFDFFF75DFDFFF7EB
:1034B0001DFDFDF763F8FCF777FF1348002300902C
:1034C00001901A4619461148FFF714FEFFF7B0FFA6
:1034D0000F4C0F48001DFCF7FDFFFCF7DFFF0C4908
:1034E0001031081FFCF770FFD4E901210748FFF7EE
:1034F000B2FD00F015FC20800548FFF7ABFF01206E
:10350000FDF78EFBE5E700000000C8423C0000200C
:103510000000002021F00042A2F16052B2F5801FAD
:1035200001F0004328BFD2F17F6C0BD95FEA001C89
:1035300043EAC20242EB507018BF704728BF20F028
:1035400001007047B2F5801FBCBF184670474FEAB4
:10355000410C1CF5001F02D2084600F010BD70B5EA
:1035600000F028FA00000089FFF7F6BF4FF0004096
:10357000A0F580007047000002494FF0000000F005
:10358000AABD00BF0000F87F2DE9C04130B4DFF8CC
:10359000A0C23CEA111418BF3CEA131400F0EC80FE
:1035A00081EA03051CEA111444EAD57418BF1CEA29
:1035B000131500F0C780A4EB05044FF0004545EA61
:1035C000C12145EAC32341EA505143EA525304F171
:1035D0007F74994204F500344FEAC0204FEAC222BA
:1035E00008BF904200F09C804FEA13650FF240162E
:1035F000765D4FEA134506FB05F7C7F1807706FBBA
:1036000007F74FEAD737A7FB03687642C8F580383B
:10361000A7FB06CE38BFA8F1010807FB08E64FF06C
:10362000000EA6FB028CE6FB03CEDCF1000CCEF113
:10363000004E38BFAEF1010EA6FB0C584FF000074C
:103640004FF00005E6FB0E87A1FB08C6A0FB07CEE6
:1036500016EB0E0645F10005E1FB076515F1E04E9E
:103660007EBFA4F580345FEA46066D4116F18007FF
:1036700045F100054FEA17274FEA066647EA056756
:10368000A6F1DE46B6F1805F4FEA15251FD9384610
:1036900024F0010C05EBC471BCF1FE6F01EB0C11C1
:1036A00002D8F0BCBDE8008124425CBF01F5801E59
:1036B0009EEAC47F02D4F0BCBDE80081244238D425
:1036C000F0BCA1F1C041BDE8004100F0C1B94FEA32
:1036D000D22242EA43524FEAD323A7FB02864FEAA3
:1036E000D02040EA415007FB03661EEA0E0F4FEA66
:1036F000D12105FB026658BFA6EB0056B6EB00567B
:103700004FEA520E4EEAC37E18EB0E0E56EB530EE6
:10371000BDD518EB02085E417F1C55F10005B6E7E8
:103720004FF480154FF000074FF000064FF00008EF
:10373000ADE7F0BC4FF0000001F1C04101F00041E5
:10374000BDE8008111EA0C1F0CEA131500D00CE053
:1037500013EA0C1F00F025804FF00000F0BC81EA56
:10376000030101F00041BDE80081F0BCBDE800416B
:1037700081EA030100F06CB9F0BCBDE8004170B50E
:1037800000F018F9097EFC3E00F007B881EA030159
:103790004FF0000001F00041704781EA030100F0A2
:1037A00057B9F0BCBDE800414FF000002149704717
:1037B000FFFDFBF9F7F5F4F2F0EEEDEBE9E8E6E4F6
:1037C000E3E1E0DEDDDBDAD8D7D5D4D3D1D0CFCD7D
:1037D000CCCBCAC8C7C6C5C4C2C1C0BFBEBDBCBBB6
:1037E000BAB9B8B7B6B5B4B3B2B1B0AFAEADACABB1
:1037F000AAA9A8A8A7A6A5A4A3A3A2A1A09F9F9E8B
:103800009D9C9C9B9A99999897979695959493933C
:10381000929191908F8F8E8E8D8C8C8B8B8A8989D3
:103820008888878786858584848383828281818056
:103830000000FF070000F87FB0FA80F310FA03F1F0
:103840000AD0C3F11D0303F580634FEA41504FEAEC
:10385000035202EBD12170474FF000007047000087
:10386000DFF848C170B51CEA111E1EBF1CEA131513
:103870009EEA0C0F95EA0C0F00F06F8081EA0304BA
:1038800023EA4C134EEAD47E21EA4C1141F4801114
:1038900043F48013AE44A1FB024CA0FB0365AEF1E0
:1038A0007F7E361955EB0C05A1FB034C4CF1000350
:1038B000A0FB021C16EB0C06654153F10003094204
:1038C00018BF46F0010613F4007F0BD14FEA033115
:1038D0004FEA0530340341EA155140EA16506FF0C3
:1038E00003020AE04FEAC3214FEAC520F40241EA8D
:1038F000555140EA56506FF0020202EB2E4201EBA6
:10390000025585EACE710AD05FEA440C18BF24F054
:10391000004450F1000041F1000120EAD47040F26F
:10392000FE7C624500D270BDA84214BF4FF08044B7
:103930004FF04044002E08BF0024BEF1806FA8BFA6
:10394000A1F1C041BDE8704080F282804FF00000DC
:1039500001F1C04101F0004170479EEA0C0F0CEAF2
:10396000131518BF95EA0C0F06D04FF0000081EA3E
:10397000030E0EF0004170BD00F01CF88900013EFE
:1039800000F007B800F009B84FEA430C5FEA5C5C4E
:1039900008D081EA030100F05BB84FEA410C5FEA0E
:1039A0005C5CF6D14FF00000014970470000FF0752
:1039B0000000F87F0EF1020E2EF0030E5EF8046B8D
:1039C000364205D4012A43EB030515F5001F12D832
:1039D000012841EB010C1CF5001F0CD80ED14FEA59
:1039E000D17C15F5001F0CEB4C0C0CF1020C08BF40
:1039F0004CEBD37C04E04FF0080C01E04FEAD37CA1
:103A00000CEB4C0526FA05F606F00706B6F1040C99
:103A100006D20EEB860CBDE870404CF0010C6047FE
:103A2000DFE80CF0090B02024FF000414FF00000FC
:103A3000A1F5002170BD19461046012851EB010483
:103A400018BFD4F5001484BF002001F0004170BD00
:103A50000808A0F500114FEA3101704743004FEA12
:103A6000D30C4FEA3C0C43401FBF40070CF16051A0
:103A700013F0FE4F70471CF0006F03D100200CF0D4
:103A8000004170470CF0004343EA507010B540EA23
:103A9000CC0000F02EFA00BF000000924FEA0001B7
:103AA000FFF7D6BF4FF000414FF00000A1F5002115
:103AB0007047000090EA010F48BF81F0004100F11B
:103AC0009C82421A3CBF801A89184FEAD0524FF0AC
:103AD0007F4C1CEA410FA2EBD15318BF9CEA026F46
:103AE00000F03B804FF0004C4CEA00204CEA0121F2
:103AF00021FA03FC10EB0C0C1ED202F1FF325FEA3C
:103B00001C2040EBC25038BF70471CF07F0F4FEABB
:103B1000400C18BFBCF17F4F38BF7047C3F1200382
:103B2000994008BF20F00100BCF17F4F38BF7047BB
:103B3000A0F1C04000F023BA4FEA3C00000A40EB7D
:103B4000C25028BF1CF0FF0F4FEA400CE6D018BF50
:103B5000BCF17F4F38BF7047EAE79CEA026F05D09F
:103B600010EA5C0F08BF00F00040704710B500F08D
:103B7000C0F900BF64FBBE3E014800F0ACBA00BF14
:103B80000000C07F401058BFC0F14040491058BFEE
:103B9000C1F140418142EFF3008070474FF47F0C48
:103BA0001CEAD0121EBF1CEAD11392EA0C0F93EA52
:103BB0000C0F00F0858090EA010F48BF42F480723C
:103BC00040F4000C41F400002CF07F4120F07F40D5
:103BD00000B58142A2EB03020FF2081CACEB504E81
:103BE000C0F100009EF800E04FEA4E0E00FB0EFC14
:103BF00038BF49004FEA2C1C02F5FA020CFB0EF309
:103C00004FEACE1E4FEA112C4FEAC1210EEB635E44
:103C100042EB22420EFB0CFC4FEA1C5300FB03114B
:103C20004FEA112C4FEA01310EFB0CFC4FEADC4C41
:103C300000FB0C11C14228BF09184CEB03335DF89F
:103C400004EB10EB410143EBC250B2F57C0F38BFDF
:103C5000704729D512F0F00F1CBF00F1C04000F0F2
:103C600000407047008182838485868788898B8C99
:103C70008D8E8F919293959697999A9C9D9FA0A2D5
:103C8000A3A5A7A8AAACAEB0B2B3B5B7B9BCBEC025
:103C9000C2C5C7C9CCCED1D4D7D9DCDFE2E6E9ECC6
:103CA000F0F3F7FAFE0000004FEA400C0CF1807CC4
:103CB000BCF17E4F28BF7047B0F1C04000F05FB943
:103CC00090EA010F0CEAD11348BF42F480726245BA
:103CD00038BF634507D213F47F0F16D080EA010086
:103CE00000F00040704710B500F003F9097EFC3E7B
:103CF00000F005B880EA010000F00040704780EA5B
:103D0000010000F0004000F03AB912F47F0F04BF48
:103D10000248704780EA010000F031B90000C07F1E
:103D2000C10DD1F19E0206DB4FEA002343F00043B0
:103D300023FA02F07047004207D54FEA4001B1F183
:103D4000FE4F02D24FF00000704710B500F0D1F8DE
:103D500049922480002070476FEA200070470000DD
:103D6000B0FA80F310FA03F2C3F19D030AD0D9052B
:103D700001EB1220530638BF704700F1010008BF65
:103D800020F001007047000050EA010C00F11380A0
:103D90001CF5000F58BFBCF5000F01D488427047D6
:103DA00007D710F5000F58BF11F5000F15D4884242
:103DB0007047894270471CF5000F04D5BCF5000F11
:103DC000F7D5814270474FF0807C1CEB400F38BF25
:103DD0001CEB410F01D28142704710B500F089F809
:103DE000922449004FF000504FF08051FFF7CABEB7
:103DF0004FF47F0C1CEAD0121EBF1CEAD11392EACA
:103E00000C0F93EA0C0F00F0478090EA010F48BFB7
:103E100042F480724FF0004C4CEA00204CEA012141
:103E200002EB0302A0FB0113A2F50002002918BF58
:103E300043F001035B0028BF4FEA330342EB224209
:103E40005FEA132C4CEBC2502EBFBCEB436FB2F5B4
:103E50007C0F70474FEA036CBCF1004F08BF20F0A5
:103E60000100B2F57C0F38BF70470BD582F0FF021E
:103E700012F5803FC8BF704700F1C040D8BF00F0C6
:103E80000040704700F5000C5FEA4C0C48BF7047DB
:103E9000B0F1C04000F073B890EA010F0CEAD11302
:103EA00048BF42F48072624538BF634504D280EA5D
:103EB000010000F00040704710B500F01AF800BF94
:103EC0008900013E00F007B800F009B85FEA410C34
:103ED0005FEA1C6C08D080EA010000F050B85FEA8D
:103EE000400C5FEA1C6CF6D14FF00040A0F580005A
:103EF00070470EF1020E2EF0030E5EF8044B2442C2
:103F000004D44FEA4102B2F17F4F11D84FEA400387
:103F1000B3F17F4F0CD80ED14FEAD07CB2F17F4F76
:103F20000CEB4C0C0CF1020C08BF4CEBD17C04E008
:103F30004FF0080C01E04FEAD17C0CEB4C0324FA63
:103F400003F404F00704B4F1040C06D20EEB840C65
:103F5000BDE810404CF0010C6047DFE80CF00708AA
:103F600002024FF00040A0F5800010BD084642005C
:103F700018BFD2F1807288BF00F0004010BDFF2151
:103F800041EAD050C005704751EA000C00F113809F
:103F90001CF5000F58BFBCF5000F01D481427047DB
:103FA00007D711F5000F58BF10F5000F15D4814247
:103FB0007047894270471CF5000F04D5BCF5000F0F
:103FC000F7D5884270474FF0807C1CEB410F38BF1B
:103FD0001CEB400F01D28842704780EA010081EA61
:103FE000000180EA0100FFF7F8BE000090EA010F2F
:103FF00048BF81F000413FF564AD421A04D882F019
:104000000042A0EB020011444FEAD0524FF07F4C27
:104010001CEA410FA2EBD15318BF9CEA026F4AD0B1
:104020004FF0004C4CEA00204CEA012121FA03FC3D
:10403000B0EB0C0C0FD412F0FE0F36D05FEA4C0040
:104040001DD5001240EBC25038BF70471CF03F0F27
:1040500018BF70470BE0A2F101025FEA1C2040EBA1
:10406000C25038BF70471CF07F0F18BF7047C3F1B4
:104070002003994014BF401E20F0010070478008C3
:104080004FEA122308BF7047B0FA80FCA2EB0C0283
:10409000CCF1280C60FA0CF093EA122F04BF00EB6D
:1040A000C25070474FEAC3707047130A5FEADC10D2
:1040B00008BF7047F6E79CEA026F04D010EA5C0F75
:1040C00008BF0020704710B5FFF713FF40DFF63E32
:1040D00081F0004070470CF00F03092B08BF082047
:1040E00000F07F800A2B0BD0082B18BF704708BF49
:1040F0001CF0400F0AD04FF000004FF00001704755
:104100001CF0400F18BF4FF0004070471CF0100F1C
:1041100008D020F0704300F07F4242EAD3014FEA1A
:104120004370704700F0604021F07F4242EA000295
:1041300001F07F4040EA727070474FF0FF0C4CF482
:10414000E06C1CEA11531CBF9CEA030C9445C2BFEF
:10415000DA4201EB02517047002B0DD0BCF1000F89
:104160000FD0002A01F00041A4BF41F0E04141F02E
:104170007F614FF00000704701F000414FF00000F8
:10418000704750EA01334FF09B0C18BF4CF0806C25
:104190007FF4F2A970474FF0FF0212EAD0521CBF21
:1041A00092F0FF038B42C2BFD14200EBC150704777
:1041B000002A0AD0002B0BD0002900F00040A4BF39
:1041C00040F0FE4040F40000704700F000407047AF
:1041D00043024FF00B0C18BF4CF0806C7FF4CCAC5A
:1041E00070471CF4801F11D01CF4E02F03D06FEA3D
:1041F000CC31490070474FF04050EFF3008222F07D
:10420000704242EA000282F3008870474FF00000DB
:1042100070470000000000000000010203040607D0
:104220000809000000000102030400004C420008DD
:10423000000000203C0000006C01000888420008DB
:104240003C00002064070000880100080000000016
:10425000000000000000A04200000000000000007C
:104260000100000010000000000000000024F40025
:10427000000000000000000000000000000000003E
:08428000000000000000000036
:0400000508000131BD
:00000001FF
