:020000040800F2
:10000000F00B0020CD0100084F4300084D320008DE
:100010004D43000885050008D54900080000000090
:100020000000000000000000000000007543000810
:10003000CB0500080000000051430008B54300084C
:10004000E7010008E7010008E7010008E7010008F0
:10005000E7010008E7010008E7010008E7010008E0
:10006000E7010008E7010008E7010008E7010008D0
:10007000E7010008E7010008890500089505000868
:10008000E7010008E7010008E7010008E7010008B0
:10009000E7010008E7010008E7010008E7010008A0
:1000A000E7010008E7010008E7010008E701000890
:1000B000E7010008354400084144000851320008B7
:1000C000E70100085D320008E7010008E7010008C9
:1000D000E7010008C9490008E7010008E701000836
:1000E000E7010008E7010008E7010008E701000850
:1000F000E7010008E7010008E7010008E701000840
:10010000E7010008E7010008E7010008E70100082F
:10011000E7010008E7010008E7010008E70100081F
:10012000E7010008E7010008E7010008E70100080F
:1001300000F002F800F03AF80AA090E8000C8244BF
:100140008344AAF10107DA4501D100F02FF8AFF29C
:10015000090EBAE80F0013F0010F18BFFB1A43F0A5
:100160000103184794600000B4600000103A24BFF7
:1001700078C878C1FAD8520724BF30C830C144BF0C
:1001800004680C607047000000230024002500264E
:10019000103A28BF78C1FBD8520728BF30C148BFEA
:1001A0000B6070471FB51FBD10B510BD00F06DF896
:1001B0001146FFF7F7FF04F0C7FE00F08BF803B419
:1001C000FFF7F2FF03BC00F08FF8000009488047FA
:1001D00009480047FEE7FEE7FEE7FEE7FEE7FEE729
:1001E000FEE7FEE7FEE7FEE704480549054A064B41
:1001F000704700003344000831010008F00500207A
:10020000F00B0020F0070020F00700204FF0000264
:1002100000B5134694469646203922BFA0E80C50FC
:10022000A0E80C50B1F12001BFF4F7AF090728BFD7
:10023000A0E80C5048BF0CC05DF804EB890028BF53
:1002400040F8042B08BF704748BF20F8022B11F07C
:10025000804F18BF00F8012B7047704770477047F8
:1002600010B500F00DF8006810BD10B5044600F0A0
:1002700007F8046010BD0000004870478C0500209E
:10028000004870478C05002070477546FFF7F4FF63
:10029000AE4605006946534620F00700854618B073
:1002A00020B5FFF7A1FFBDE820404FF000064FF05A
:1002B00000074FF000084FF0000B21F00701AC469B
:1002C000ACE8C009ACE8C009ACE8C009ACE8C009BA
:1002D0008D46704710B50446AFF300802046BDE858
:1002E0001040FFF76CBF000001491820ABBEFEE7CD
:1002F0002600020070B5044600688168C943C9073A
:1003000017D1816821F00101816001F0EBF8054609
:100310000AE000BF01F0E6F8401B022804D920687B
:100320008068C043C00706D020688068C043C0070B
:10033000F0D0002070BDA06A40F01000A062E06A1A
:1003400040F00100E062012070BD0000F8B5002619
:100350000446009600688168C943C9072DD08168AA
:1003600041F001018160164816490068B0FBF1F0C8
:1003700000E0401E00900028FBD101F0B3F80546D4
:1003800016E000BF01F0AEF8401B022810D920682B
:100390008068C043C0070BD0A06A40F01000A06284
:1003A000E06A40F00100E06284F824600120F8BDBA
:1003B00020688068C043C007E4D10020F8BD000079
:1003C0003000002040420F001CB5E1208DF80400F1
:1003D0004FF6FF700090012301AA7021014801F03F
:1003E0008DFB1CBD5C020020FEB50D46064600F0EC
:1003F0006FF84B2000F068FF4FF6FF700090062367
:1004000001AA7121234801F057FA9DF80400C4099C
:10041000C0F3C00008B900F047F81F4934B148687C
:100420005A2801D3FFF7D0FF0120FEBD9DF805003B
:100430009DF80620000340EA02109DF8072040EADC
:100440001210086012079DF80830120B42EA0324CC
:100450009DF8092014434C6005F081F800220F4BF1
:1004600005F090F86FF013073A4605F02CFE04F003
:10047000DDFD3060204605F02FFC394605F051FEC9
:10048000074905F071FC074905F076FD286000205A
:10049000FEBD00005C020020340000200000594036
:1004A00000004843000048421CB5BA208DF8040003
:1004B0004FF6FF700090012301AA7021034801F05C
:1004C0001DFB142000F000FF1CBD00005C0200209A
:1004D0001CB5AC208DF8040033208DF805000020F9
:1004E0008DF806004FF6FF700090032301AA7021DB
:1004F000034801F003FB502000F0E6FE1CBD0000A5
:100500005C0200202DE9F041D0F8946104460D46CC
:10051000701C4FF000071CD054F82610D4F890013E
:1005200005F02AFD294605F04DFAC4F8900144F87B
:100530002650D4F89401401CC4F89401642801DBCF
:10054000C4F89471D4F89001BDE8F041084905F071
:10055000ADBA0026294644F82650D4F8900105F09B
:1005600031FA761CC4F89001642EF3DBE8E7000052
:100570000000C8424FF0FF31C0F894110021C0F8CC
:1005800090117047FEE70000014800F003BD000035
:1005900020040020014800F0FDBC0000640400209D
:1005A00030B590F840500124AC40C56B6C600468D5
:1005B00063604368102B036803D099600068C260D1
:1005C00030BD9A600068C16030BD70472DE9FF4FB3
:1005D00087B014AE01AF96E8310000268DF80060B8
:1005E00004AE4FF03D0A86E8310087E80E00002493
:1005F000494D4FF030094FF02E0B0A26DFF81C81D1
:1006000004E000BF9DF80000B42879D857F8240012
:10061000404517D24249884214DA9DF8000004F19F
:1006200061012954401CC0B2494605F800A0401C95
:10063000C0B205F80090401CC0B205F800B0401CE4
:10064000C0B24AE0374AA0F50001914219D29DF8A4
:10065000001004F161026A54491CC9B205F801A0F6
:10066000491CC9B205F80190491CC9B205F801B08E
:10067000491CC9B205F80190491C8DF800102A499F
:1006800020E000F1FF41914231D29DF8002004F1B9
:100690006101A954521CD1B22D2205F801A0491CB8
:1006A000C9B26A54491CC9B205F80190491CC9B2C3
:1006B00005F801B0491CC9B205F80190491C8DF834
:1006C00000101A4905F050FB04F029FA90FBF6F1EE
:1006D00006FB11019DF8000030312954401CC0B2C6
:1006E0002C212954401C8DF8000005E008E06B46E1
:1006F0002246094904F024FA641CE4B2062C81D392
:100700009DF800200449A81800F8016C079800F033
:100710000FF80BB0BDE8F08FA80400200AD723BC67
:100720000AD7233CCDCC4C3D0000C8420000C8C2D3
:1007300070B515460E46044602F098FB21280BD0F2
:1007400020680068C043400606D42A463146204649
:10075000BDE8704002F038BD70BD00002DE9F047E3
:100760000C4607463221294800F056FA274800F087
:1007700093F9274E80B2308005F0AEFA6FF00B018E
:1007800005F0CFFC05F0F2F84FF06632214B04F093
:10079000F9FE04F04BFC0546706029461E4805F042
:1007A000EBFB80461D49284605F0DEFA414605F080
:1007B0007DF91B4AB0601B4E054690420FDA294670
:1007C0009046104605F0D8FB81464146284605F084
:1007D000CBFA494605F06AF92060B04200DB26609A
:1007E000206805F0C3F8104A104B04F00DFD04F02A
:1007F000FDF90F4A0F4B04F007FD04F017FC0E49FA
:100800003860884200DD3960BDE8F0872C020020A6
:100810003C00002066660A400000B8410000964394
:100820000000484200401C47418CD8B450C9393BB5
:10083000B8AF03E78C28E33F0000C84210B5044876
:1008400000F040F8BDE81040014800F083BA000015
:100850002C02002072B6FEE710B504460B4801F0EA
:1008600025FF0B4801F022FF084801680A6A22F0C0
:10087000A0020A620068016A41F0200101620421BD
:10088000024802F07DF80020A06110BD4C0300205A
:100890009403002010B5406905F068F84FF0663207
:1008A000054B04F0F5FB054A054B04F0ADFCBDE833
:1008B000104004F0BBBB000066AE74403BDF4F8DC0
:1008C00097265240F8B500250446009590F824007C
:1008D000012808D0012084F824002046FFF70AFDF3
:1008E000060002D053E00220F8BDA06A20F4885030
:1008F00040F00200A062022001F08CFA264909684B
:10090000B1FBF0F0400000E0401E00900028FBD159
:100910002046FFF71BFD2068816841F008018160D7
:1009200000F0E0FD074608E000F0DCFDC01B0A28EF
:1009300003D920688068000715D420688068000704
:10094000F2D42068816841F00401816000F0CAFDA2
:10095000074612E000F0C6FDC01B0A280DD920682A
:100960008068400709D5A06A20F0020040F010001E
:10097000A06284F824500120F8BD206880684007F8
:10098000E8D4A06A20F0020040F00100A06284F8E0
:1009900024503046F8BD000030000020F8B5002497
:1009A000009490F824202546012A12D0012280F8D4
:1009B00024204A681F23072A0DD20668776B521E2F
:1009C00002EB820293409F430B6893401F4377637F
:1009D00019E00220F8BD06680D2A0AD2376BD21F33
:1009E00002EB820293409F430B6893401F4337639F
:1009F00009E0F76A0D3A02EB820293409F430B68CD
:100A000093401F43F7620A68072306680A2A0AD33D
:100A1000F7680A3A02EB420293409F438B68934087
:100A20001F43F76008E0376902EB420293409F439F
:100A30008B6893401F4337610A68102A01D0112A3E
:100A400020D1124B02689A4217D193681B0219D425
:100A5000936843F4000393600968102912D10C498C
:100A60000C4A0968B1FBF2F101EB8101490000E099
:100A7000491E00910029FBD104E0816A41F0200168
:100A80008162012480F824502046F8BD00240140F2
:100A90003000002040420F000068C06C704700002A
:100AA0002DE9F04104004FF000057FD0A06A002638
:100AB00028B9E66284F82460204600F081F82046D8
:100AC000FFF718FCA16AC90600D420B1A06A40F063
:100AD0001000A0626AE0A16A21F4885141F002018D
:100AE000A162334923688B42E16904D1B1F5402FFB
:100AF00001D14FF40021277B4FF4807C41EA47026B
:100B000061680A43A168614508D0012906D0002127
:100B100094F814E0BEF1010F02D00AE06146F7E755
:100B2000C7B1A76A47F02007A762E76A47F0010745
:100B3000E7625F6827F469470F435F60236899683D
:100B40001C4F394011439960A16861450BD00129C0
:100B500009D00CE0DFF860E0A7690EEB47370F43E0
:100B600047F40061E5E7218A0D05A5F580152168A8
:100B7000CB6A23F470032B43CB62216889680F4B47
:100B80001940914208D1E662A16A21F0020141F0C8
:100B90000101A162BDE8F081A06A20F0020040F0EE
:100BA0001000A062E06A40F00100E0620120F1E77D
:100BB000003C0140FDF7E1FF00E0FFFFFE0E1FFFDC
:100BC00000B585B000210091019102910391006868
:100BD0000E49884218D10E48816941F40071816143
:100BE000816901F400710491816941F0040181611E
:100BF0008069694600F004000490102000900320F2
:100C00000190044800F072FB05B000BD00240140D3
:100C100000100240000801402DE9F84300270D466E
:100C20000446009700F05EFC804620688168C90594
:100C300008D5A06A40F02000A06284F8247001204A
:100C4000BDE8F8834168C90503D4C06A10F4700F89
:100C50002AD0022001F0DEF83B490968B1FBF0F62A
:100C60002068036939490B424FEA61014FEAA1123A
:100C70001FD1C3684FEA611C13EA0C0F19D1036935
:100C80000B4225D1C068104222D1142023E0681CF9
:100C90000AD02DB100F026FCA0EB0800A84203D931
:100CA00020680068800725D5206800688007EED599
:100CB0002DE003690B4202D1C168114206D00269DE
:100CC00023490A4206D1C068084203D1542002E0F9
:100CD000292000E0FC204643009816E0681C11D053
:100CE0002DB100F0FFFBA0EB0800A8420AD9009844
:100CF000B04207D2A06A40F00400A06284F82470D9
:100D000003209DE70098401C0090B042E6D3216884
:100D10006FF012000860A06A40F40070A0622068C2
:100D20008068C0F3424007280CD1207B50B9A06AEC
:100D300020F48070A062A06AC00403D4A06A40F0CE
:100D40000100A06200207BE73000002024499224AB
:100D50004992240070B5044690F8240001280DD073
:100D6000012084F824002046FFF7F0FA02004FF03B
:100D7000000005D084F82400104670BD022070BD2C
:100D8000A16A40F20123994341F48071A1621F4D91
:100D900023681F49AB4218D10E6816F4702F14D087
:100DA000A66A46F48016A6620E68760505D5A66A80
:100DB00026F4005646F48056A662A66AF6040AD5C2
:100DC000E66A26F00606E66206E0A66A26F48016C3
:100DD000A6625E68E9E7E06284F824006FF0020032
:100DE000186020688368C3F34243072B05D1A842EB
:100DF00008D1096811F4702F04D0816841F4801182
:100E00008160B9E7816841F4A001F9E70028014059
:100E10000424014010B590F821100022022905D0C9
:100E20000421816380F82020012010BD01680B6837
:100E300023F00E030B6001680B6823F001030B60C5
:100E400090F84030C46B012101FA03F3636080F82D
:100E5000211080F82020104610BD00002DE9F05F21
:100E600090F821100024022903D004218163012479
:100E700085E001680A6822F00E020A6001680A68CB
:100E800022F001020A603F4E3E4FB215DFF8F4C077
:100E9000DFF8F090DFF8ECA0DFF8E8B0DFF8E4E08E
:100EA0000168783F13011502ACF1640CA9F15009F7
:100EB000AAF13C0AABF1280BAEF1140E4FF48018E6
:100EC000B14227D9B9420ED0614512D049451DD053
:100ED000514518D0594518D0714501D1424615E009
:100EE000294EB14201D1012210E0274E1436B14201
:100EF00001D110220AE0244E2836B14206D0224AFF
:100F00003C32914201D11A4600E02A461E49091F8F
:100F10000A602BE0B94213D0614517D0494522D071
:100F200051451DD059451DD0714501D142461AE0A9
:100F3000B14202D14FF0807215E0134EB14201D19F
:100F4000012210E0104E1436B14201D110220AE005
:100F50000D4E2836B14206D00B4A3C32914201D1A7
:100F60001A4600E02A46074980394A60012180F884
:100F70002110002180F82010416B01B188472046E4
:100F8000BDE8F09F800002400804024090F8210074
:100F9000704700002DE9F05FC16B0A6801680B68BB
:100FA000046C4FF0040808FA04F8844D844E854F11
:100FB000DFF814C2DFF81492DFF814A2DFF814B2DD
:100FC000DFF814E218EA020F65D05FEA437862D5D1
:100FD0000A68920603D40A6822F004020A60DFF865
:100FE000F0814FF48062016808F1140813011402C3
:100FF000414524D9A9420DD0B1420FD0B9421AD0EF
:10100000614515D0494515D0514501D1120312E073
:10101000594501D104220EE0714501D140220AE078
:101020006D4D1435A94206D06B4A2832914201D148
:101030001A4600E022466749091F0A6029E0A942D2
:1010400013D0B14215D0B94220D061451BD04945DB
:101050001BD0514502D14FF4800217E0414502D127
:101060004FF0806212E0594501D104220EE0714533
:1010700001D140220AE0584D1435A94206D0564A03
:101080002832914201D11A4600E022464B490839E4
:101090004A60C16A71E04FF0020808FA04F818EAE1
:1010A000020F70D05FEA83786DD50A68920606D485
:1010B0000A6822F00A020A60012180F82110DFF894
:1010C00010814FF40072016808F114081301140232
:1010D000414524D9A9420DD0B1420FD0B9421AD00E
:1010E000614515D0494515D0514501D1120312E093
:1010F000594501D102220EE0714501D120220AE0BA
:10110000354D1435A94206D0334A2832914201D1D7
:101110001A4600E022462F49091F0A6029E0A94229
:1011200013D0B14215D0B94220D061451BD04945FA
:101130001BD0514502D14FF4001217E0414502D1B6
:101140004FF0007212E0594501D102220EE07145C4
:1011500001D120220AE0204D1435A94206D01E4AB2
:101160002832914201D11A4600E02246134908393B
:101170004A60002180F82010816A00291CD0BDE857
:10118000F05F0847FFE70825A540154214D01A076D
:1011900012D50A6822F00E020A6090F84020C36B54
:1011A000012101FA02F25A60816380F821100021C6
:1011B00080F82010016BE0E7BDE8F09F08000240D6
:1011C0001C0002403000024044000240580002402F
:1011D0006C000240080402401C04024030B560B1BB
:1011E0001A4B026814219A4209D2194B1344B3FBDB
:1011F000F1F18900016417490AE0012030BD134B69
:101200005B421344B3FBF1F1890001640F490839D3
:10121000C163022180F82110136843F6F0718B43FB
:10122000F0E901142143D0E902452C43214304692C
:1012300021434469214384692143194311600021FA
:101240004163012242770177084630BD080402401D
:10125000F8FFFDBF0000024070B5044690F8200082
:10126000002501280CD0012084F8200094F821608A
:101270000020012E06D084F820000225284670BDEB
:10128000022070BD022684F82160A06320680668F1
:1012900026F0010606602046FFF782F9E06A002882
:1012A0002068016802D041F00E0106E021F004013F
:1012B00001602068016841F00A010160206801684E
:1012C00041F001010160D9E770B5044600F00AF968
:1012D0000546601C02D004480078044400F002F97E
:1012E000401BA042FAD370BD240000202DE9F84F26
:1012F000DFF8C891002409F1040A0AF1040B23461F
:101300000F270BF1040ED1E00125A54006EA0502E6
:10131000AA4276D1DFF8A8C14E68A6EB0C08664554
:101320002BD00DDC032E34D005DC36B3012E19D0C2
:10133000022E2FD11BE0112E16D0122E2AD119E029
:10134000B8F5881F19D006DCB8F5803F15D0B8F580
:10135000801F1FD111E0B8F5001F0ED0B8F5041F93
:1013600018D10AE0CB6815E0CB681B1D12E0CB68F2
:1013700008330FE0CB680C330CE08B682BB1012BEA
:101380004FF0080303D0456104E0042302E0056147
:1013900000E00023FF2A01D8064601E000F1040620
:1013A0004FEA840501D9A5F12005D6F8008007FA97
:1013B00005FC28EA0C0803FA05F548EA0508C6F812
:1013C00000804D68ED0070D53E4DAE6946F00106D7
:1013D000AE61AD6924F0030605F0010500953A4DB4
:1013E00006EB050CDCF80850A607360F07FA06F8DE
:1013F00025EA0805DFF8D480404503D14FF0000806
:1014000025E052E0DFF8C880404502D14FF00108E6
:101410001DE0DFF8C080404502D14FF0020816E021
:10142000DFF8B480404502D14FF003080FE0DFF849
:10143000AC80404502D14FF0040808E0DFF8A080FE
:10144000404502D14FF0050801E04FF0060808FAC8
:1014500006F848EA0508CCF808804D68D9F800601D
:10146000ED034D4601D5164300E096432E604D68CE
:10147000DAF80060AD03554601D5164300E0964307
:101480002E604D68DBF80060ED025D4601D5164325
:1014900000E096432E604D68DEF80060AD027546B0
:1014A00001D5164300E096432E60641C0A68164678
:1014B000E2407FF429AFBDE8F88F0000000401404E
:1014C000000011100010024000000140000801401F
:1014D000000C0140001001400014014000180140C0
:1014E000001C014001488068704700002400002073
:1014F000704770472DE9F047026800215368C66ABB
:1015000090F83E4090F83D50102C12D0402C10D056
:10151000046C002C7DD05469E443A6077AD4DE43E2
:10152000B60577D4036C03B19169BDE8F04702F0CA
:101530003DBB976951694FF42A0CC9435FEAC178F2
:101540004FF02A4904D066452AD04E4528D010E0F5
:10155000DE43B6050DD4C16A614501D1012103E026
:10156000C16A494501D10821C162BDE8F04702F0D6
:1015700087BA0E0716D4DE43B60513D4416CC9B240
:101580001161416B09B1896A29B9816B002907D0C2
:10159000896A002904D00068416841F40061416013
:1015A000BDE8F0878E0706D4DE43B60503D4BDE858
:1015B000F04702F0B9B9FE43526876074FEA02528B
:1015C0001DD4002AECDB0A0608D4DA43520505D400
:1015D000490705D5BDE8F04702F04AB94907DFD40D
:1015E000D9438905DCD4212D05D0402CD8D1BDE8C4
:1015F000F04702F08BBABDE8F04702F0F7B8002AD6
:10160000CEDB4A060BD4DA43520508D4490708D585
:1016100001E00DE00EE0BDE8F04701F0AFBF490783
:10162000BED4D9438905BBD4BDE8F04701F03DBF26
:10163000916970E7E10606D4D943890503D4BDE872
:10164000F04702F0D7BA2821212D27D0292D25D007
:10165000650655D4DD436D0552D4640752D590F824
:101660003D30448D002C9BD01269446A2270426A3E
:10167000521C4262428D521E4285428D002A8FD1F9
:101680002A2B8DD10268536823F480635360222291
:10169000026380F83D1000F023FB81E7250623D488
:1016A000DD436D0520D4640720D590F83D30448D8E
:1016B000002CF2D0446A24781461426A521C4262BF
:1016C000428D521E4285428D002AE6D1292BE4D15B
:1016D0000268536823F4806353602122026380F818
:1016E0003D1000F0FEFA5BE76107D6D4D9438905C7
:1016F000D3D4418D0029D0D0416A097811610AE024
:101700006107CAD4D9438905C7D4418D0029C4D003
:101710001169426A1170416A491C4162418D491E3A
:1017200041853DE77047000070B5040025D094F86E
:101730003D00002520B984F83C50204600F076FAA0
:10174000242084F83D002068016821F00101016037
:101750002068016841F4004101602068016821F4BB
:101760000041016000F0CCFC4D4A6168914201D813
:101770004C4900E04C49884201D2012070BD4B49E0
:101780002368B0FBF1F15E6826F03F060E435E6011
:101790006368934206D94FF4967359434FF47A73B2
:1017A000B1FBF3F12368491C1E6A26F03F06314362
:1017B00019626168914210D84900401EB0FBF1F2F5
:1017C000521CC2F30B02042A01D2042022E0B0FB17
:1017D000F1F0401CC0F30B001CE0A268F2B301EB77
:1017E000C10303EB0116431EB3FBF6F35B1C43F48A
:1017F00080431B0549D092B301EBC10202EB0111FA
:10180000401EB0FBF1F0401CC0F30B0040F48040E0
:1018100040F400402168CA694CF6FF739A431043B4
:10182000C861D4E9071001432068026822F0C002B1
:1018300011430160D4E9030101432068826848F242
:10184000FF339A4311438160D4E9050108432168BD
:10185000CA6822F0FF021043C86001E00EE016E003
:101860002068016841F0010101602564202084F8AE
:101870003D00256384F83E50002070BD01EB410619
:10188000431EB3FBF6F35B1CB3E70120C2E701EB99
:101890004101401EB0FBF1F0401CC0F30B00B7E764
:1018A000A086010080841E0000093D0040420F0018
:1018B00070477047704700002DE9F84F0025DDF8AC
:1018C0002890984617468A4604460095FFF70AFE78
:1018D000064694F83D0020287AD119230122834935
:1018E0002046009602F05AFA0028F5D194F83C0000
:1018F00001286DD0012084F83C0020680168C907E8
:1019000003D1016841F0010101602068016821F400
:1019100000610160222084F83D00102084F83E0020
:1019200025646762A4F82A80608D20857048E06293
:1019300033464A465146204601F094FE00287DD1A8
:10194000208DDFF8B081202768B1012814D002284B
:10195000206801681ED041F48061016020684169FF
:1019600080690090B5E02068416981690091016853
:1019700041F400710160ACE02068016821F48061ED
:10198000016072B62068416981690091016841F483
:1019900000710AE041F40061016072B6206841699B
:1019A00081690091016821F48061016062B690E074
:1019B000032868D801280CD002284B464FF00002BB
:1019C0004146204600960FD002F0E8F9B0BB10E087
:1019D0008AE032464946204602F05FFA70BB206832
:1019E0000069616A08706BE002F0D8F930BB72B62A
:1019F00034E02068016821F48061016072B62068DB
:101A00000069616A0870606A401C6062208D401E37
:101A10002085608D401E6085374846F2A811006819
:101A2000B0FBF1F0C0EBC00000EB80000090401E66
:101A3000009008D020684069C04300E029E04007DA
:101A40000CD50098F3E744F8305F6773A5732069FD
:101A500040F02000206162B625731AE0206801681A
:101A600041F40071016020680069616A0870606A71
:101A7000401C6062218D491E2185618D491E618552
:101A800062B621681AE032464946204602F005FA5D
:101A900010B10120BDE8F88F20680069616A087004
:101AA000606A401C6062218D491E2185618D491E3E
:101AB000618521684A69D24352070AD409690170D5
:101AC000606A401C6062208D401E2085608D401E33
:101AD0006085208D00287FF46BAF84F83D7084F81A
:101AE0003E5084F83C50D5E70220D3E702001000B6
:101AF0000000FFFF04000100300000202DE9F84F36
:101B00001F4690468A460446DDF82890FFF7EAFC17
:101B1000054694F83D0020287FD119230122404931
:101B20002046009502F03AF9002876D194F83C005E
:101B3000012872D0012084F83C0020680168C907A0
:101B400003D1016841F0010101602068016821F4BE
:101B500000610160212084F83D00102084F83E00DF
:101B600000262664C4F824806785608D20852D4872
:101B7000E0622B464A465146204601F0E9FD90B905
:101B8000206841698069009036E02A46494620462F
:101B900002F0B6F950B1206C042804D12068016825
:101BA00041F4007101600120BDE8F88F606A21688E
:101BB00000780861606A401C6062618D491E618521
:101BC000218D491E89B2218522685369DB435B0759
:101BD0000BD451B100781061606A401C6062608D66
:101BE000401E6085208D401E20852A46494620469D
:101BF00002F0AEF80028CED1208D0028C5D154F8CF
:101C00003D0B016841F400710160202004F81E09B9
:101C1000E67766770020C7E7FFE70220C4E7000009
:101C2000020010000000FFFF7047704730B585B01C
:101C300000210091019102910391254D0368254CEB
:101C4000122103222448AB421DD1A36943F00803AB
:101C5000A361A369039203F008030493C023CDE9B1
:101C600000316946FFF742FBE06940F40010E06193
:101C7000E069002200F40010049011461F2000F0DB
:101C800097F81F2020E0154DAB421FD1A36943F008
:101C90000803A361A369039203F0080304934FF4BC
:101CA0004063CDE900316946FFF720FBE06940F46D
:101CB0008000E061E069002200F480000490114699
:101CC000212000F075F8212000F064F805B030BD47
:101CD0000054004000100240000C01400058004039
:101CE00070477047024881680278114481607047EC
:101CF00024000020074810B5016841F01001016080
:101D0000032000F075F80F2000F006F800F024F82A
:101D1000002010BD0020024070B50D4D04464FF468
:101D20007A712878B1FBF0F00A490968B1FBF0F04C
:101D300000F0CCFB48B9102C07D200222146501EDF
:101D400000F036F800206C6070BD012070BD00000E
:101D500024000020300000200C4808B5816941F0C3
:101D600001018161816901F001010091C16941F0C6
:101D70008051C161C06900F0805000900448416802
:101D800021F0E06141F00071416008BD00100240A7
:101D900000000140002809DB00F01F0201219140F2
:101DA0004009800000F1E020C0F8001170470000F9
:101DB000F0B40E4B1B680C46C3F30223C3F10705B6
:101DC000042D00D90425191D072901D2002300E0A4
:101DD000DB1E012606FA05F1491E214099409E406E
:101DE000761E16403143F0BC02F022BE0CED00E03E
:101DF000064900F0070208684FF6FF03184040EA62
:101E00000220034A10430860704700000CED00E018
:101E10000000FA0510B52CA401461DCC86B08DE853
:101E20001D002DA02D4C00680490002004292FD007
:101E30000BDC01292FD0022928D100F071F961684B
:101E4000C1F38131491C49001EE0082920D0102926
:101E50001CD161682268D20118D5C1F38342C9033D
:101E60001DF8020009D5616804AAC1F34041515C24
:101E70001B4AB2FBF1F1484301E01A49484361684B
:101E8000490203D440000321B0FBF1F006B010BDBD
:101E900000F056F9FAE7226AC2F30121012903D1C1
:101EA000920701D5C803F1E7022905D1626A9207BA
:101EB00002D549F64040E9E70329E7D121688903C3
:101EC000E4D54FF22440E1E70203040506070809C0
:101ED0000A0B0C0D0E0F1010010200000010024042
:101EE00000127A0000093D002DE9F843054600780C
:101EF000354CC00754D0E0690026C00008D4E06922
:101F000040F08050E061E069012600F080500090D0
:101F10002E480168C90512D40168804641F48071D9
:101F20000160FFF7DFFA074605E000BFFFF7DAFAC6
:101F3000C01B642823D8D8F80000C005F6D5206A55
:101F400010F4407021D0A98801F4407181421CD066
:101F5000206A1F49012220F440700A6000220A60B2
:101F60002062C00711D0FFF7BDFA074641F288385A
:101F700008E000BFFFF7B6FAC11B414502D90320B4
:101F8000BDE8F883206A8007F4D5206A696820F4E8
:101F90004070084320621EB1E06920F08050E0618B
:101FA0002878800705D56068A96820F44040084378
:101FB00060602878C00605D56068696920F48000F3
:101FC000084360600020DBE7001002400070004022
:101FD000400442422DE9F0470F46050061D0434ED0
:101FE000306800F00700B84209D2306820F00700DE
:101FF00038433060306800F00700B84251D128689B
:102000003B4C810712D5400703D5606840F4E0607F
:1020100060602878000703D5606840F46050606015
:102020006068A96820F0F000084360602878C00765
:1020300028D06868012810D02168022810D08907AC
:1020400000292EDA616821F0030101436160FFF786
:1020500049FA804641F288390DE021688903EFE7AB
:102060008901EDE7FFF73EFAA0EB0801494502D9E7
:102070000320BDE8F0876068696800F00C00B0EBF1
:10208000810FEFD1306800F00700B8420BD93068FB
:1020900020F0070038433060306800F00700B84295
:1020A00001D00120E5E72878400705D56068E96898
:1020B00020F4E060084360602878000706D5606877
:1020C000296920F4605040EAC100606000F038F8EF
:1020D0006168084AC1F30311515CC84006490860B1
:1020E00006480068FFF718FE0020C2E70020024003
:1020F000001002409E6100083000002028000020EF
:102100000448054900684968044AC1F30221515C4A
:10211000C84070473000002000100240AE61000847
:102120000448054900684968044AC1F3C221515C6A
:10213000C84070473000002000100240AE61000827
:1021400012A185B00FC98DE80F0014A0144A0068D1
:1021500004905168134801F00C03042B10D0082B95
:102160000ED1C1F38343C9031DF803000AD551689A
:1021700004AAC1F34041515C0A4A5043B0FBF1F05C
:1021800005B0704708494843FAE700000203040518
:10219000060708090A0B0C0D0E0F101001020000B3
:1021A0000010024000127A0000093D002DE9F84FAE
:1021B000040070D02078C04DC00749D06868C0F3D3
:1021C0008100012807D06868C0F38100022809D186
:1021D0006868C00306D52868800339D56068002880
:1021E000E7D035E06068B0F5803F0BD010B1B0F5B6
:1021F000A02F11D0286820F480302860286820F4AF
:10220000802002E0286840F480302860606890B147
:10221000FFF768F906460AE0286840F48020286045
:10222000F0E700BFFFF75EF9801B642873D82868C9
:102230008003F7D50CE0FFF755F9064605E000BF2F
:10224000FFF750F9801B6428F0D828688003F7D482
:1022500020789A4E80074FF001094FF0000839D5D9
:10226000686810F00C0F07D06868C0F3810002287E
:1022700009D16868C00306D42868800714D520698E
:10228000012808D110E02069B0B1C6F80090FFF72E
:1022900029F9074605E00AE1FFF724F9C01B0228E7
:1022A000C4D828688007F7D52868616920F0F8004D
:1022B00040EAC10028600DE0C6F80080FFF712F97F
:1022C000074604E0FFF70EF9C01B022823D8286850
:1022D0008007F7D4207800072CD57948A169D9B1B7
:1022E000C0F80090FFF7FEF8074604E0FFF7FAF8A1
:1022F000C01B02280FD8686A8007F7D571484FF4D1
:10230000FA510068B0FBF1F0009000BF0098411E48
:102310000091FAD20EE080E0C0F80080FFF7E2F80A
:10232000074604E0FFF7DEF8C01B022875D8686A8C
:102330008007F7D42078400760D5E8690027C000FF
:1023400008D4E86940F08050E861E869012700F0AE
:10235000805000905C480168C90513D40168834629
:1023600041F480710160FFF7BDF8824606E000BFCE
:10237000FFF7B8F8A0EB0A0064284ED8DBF800009D
:10238000C005F5D5E06801280AD008B1052813D0AA
:10239000286A20F001002862286A20F0040002E088
:1023A000286A40F001002862E06841F2883B98B159
:1023B000FFF798F882460BE0286A40F00400286294
:1023C000EEE700BFFFF78EF8A0EB0A0159455AD897
:1023D000286A8007F6D50CE0FFF784F8824605E00E
:1023E000FFF780F8A0EB0A0159454CD8286A80070E
:1023F000F6D41FB1E86920F08050E861E06988B345
:102400006968C1F38101022944D00228C6F86080BE
:1024100004D0FFF767F8044638E034E0FFF762F8CD
:10242000074604E0FFF75EF8C01B02282BD8286897
:102430008001F7D4206AB0F5803F05D16868A168B3
:1024400020F4003008436860D4E908010843696853
:1024500021F4741108436860C6F86090FFF742F8F1
:10246000044606E025E000BFFFF73CF8001B022809
:1024700009D828688001F7D51BE000BFFFF732F8C4
:10248000001B022802D90320BDE8F88F28688001CC
:10249000F4D40EE00128F7D06868226A00F4803195
:1024A000914204D1616A00F47010884201D0012089
:1024B000EAE70020E8E70000001002400000424286
:1024C00080044242300000200070004010B5401EE1
:1024D000B0F1807F01D3012010BD4FF0E024606196
:1024E0000F21601702F0A4FA0020A06107202061EC
:1024F000002010BD7047704770B590F83C20012A4D
:102500002CD0012480F83C40022280F83D20036852
:102510005A689D6822F070060A6832435A60104B70
:1025200002689A420ED00F4B9A420BD0B2F1804F04
:1025300008D00D4B9A4205D00C4B9A4202D00C4B5E
:102540009A4204D1496825F080031943916080F8CC
:102550003D40002180F83C10084670BD022070BD4F
:10256000002C0140003401400004004000080040FD
:10257000000C004010B5040003D094F83D0010B1E9
:1025800007E0012010BD002084F83C00204600F048
:102590001FF8022084F83D00211D206801F056FF3D
:1025A000012084F8460084F83E0084F83F0084F857
:1025B000400084F8410084F8420084F8430084F825
:1025C000440084F8450084F83D00002010BD000060
:1025D00000B585B00021009101910291039101683D
:1025E0002C48B1F1804F21D02B4A914228D1C169AA
:1025F00041F00201C161C16901F0020104918169E8
:1026000041F0040181618069694600F00400049092
:1026100080200090022002902048FEF767FE0022F2
:102620000C211D20FFF7C4FB1D202FE0C16941F0E4
:102630000101C161C06900F00100049005B000BD56
:10264000174A9142FAD1C16941F00401C161C169DF
:1026500001F004010491816941F0200181618069E8
:10266000694600F020000490901400900D48FEF799
:102670003DFE0D48416841F0E06141F48051416008
:1026800000220B211E20FFF793FB1E20FFF782FB89
:10269000D4E70000001002400004004000080140A0
:1026A00000080040001401400000014090F83D1077
:1026B000012901D001207047022180F83D100168F6
:1026C000CA6842F00102CA6000680E4988420ED012
:1026D0000D4988420BD0B0F1804F08D00B49884299
:1026E00005D00B49884202D00A49884204D181684A
:1026F00001F00701062903D0016841F001010160E2
:1027000000207047002C01400034014000040040CC
:1027100000080040000C004070B5044690F83C00F2
:10272000012817D0012584F83C50022084F83D0090
:102730002068826822F0770222F47F428260086873
:10274000502830D00DDC20284DD005DC98B310285F
:102750003BD148E0022070BD302844D0402834D11D
:1027600039E0602828D0702806D0B0F5805F2CD0E2
:10277000B0F5005F29D10AE0CB68D1E901212068DA
:1027800001F0B7FE2068816841F0770109E0CB686D
:10279000D1E90121206801F0ACFE2068816841F494
:1027A0008041816011E0CA684968206801F076FFC5
:1027B0005021206807E016E0CA684968206801F0E7
:1027C000B5FF6021206801F09EFE84F83D50002096
:1027D00084F83C0070BDCA684968206801F05EFF5B
:1027E00040212068EFE7226801461046EBE7000031
:1027F000064910B5884207D1054CA169491CA16161
:10280000042100F01BFB606010BD00004C030020A1
:10281000700500202DE9F041054690F83C000C467B
:10282000012836D0012085F83C008AB3042A42D022
:102830002868082A51D0D4E90023E168066A26F402
:1028400080560662C669076A26F4407646EA032384
:102850004FF6FF7606EA013123F4704319434FF433
:10286000005627F4005306EA02321A43C16102629D
:102870002868C16921F44061C1612868C169A26802
:1028800041EA0221C161002085F83C00BDE8F081E9
:1028900001E00220FAE7D4E90012E368286801F0B9
:1028A0000FFF2868816921F00C0181612868816926
:1028B000A26811430FE0D4E90012E368286801F030
:1028C00047FF2868816921F4406181612868816936
:1028D000A26841EA02218161D5E7D4E90027267B7D
:1028E000016A21F480710162C169036A21F0030168
:1028F000394321F0F00731074FF4007647EA1161C0
:1029000023F4007306EA02221A43C16102622868B6
:10291000C16921F00C01C1612868C169A268114335
:10292000B0E710B5040003D094F83D0010B107E003
:10293000012010BD002084F83C00204600F01EF865
:10294000022084F83D00211D206801F07FFD012058
:1029500084F8460084F83E0084F83F0084F8400084
:1029600084F8410084F8420084F8430084F844006D
:1029700084F8450084F83D00002010BD7047000039
:1029800010B5044651B104290DD0082910D094F88F
:10299000410094F84520012811D10EE094F83E0042
:1029A00094F84220F7E794F83F0094F84320F2E7C8
:1029B00094F8400094F84420EDE7012A01D001206A
:1029C00010BD022051B1042911D0082918D084F873
:1029D000410084F845000C291BD13CE084F83E00FE
:1029E00084F842002068C26842F0020210E084F8D5
:1029F0003F0084F843002068C26842F0040207E008
:102A000084F8400084F844002068C26842F008025C
:102A1000C2600122206801F05FFD114920688842F0
:102A20000ED0104988420BD0B0F1804F08D00E492B
:102A3000884205D00D49884202D00D49884204D110
:102A4000816801F00701062903D0016841F0010106
:102A50000160002010BD2068C26842F01002D7E774
:102A6000002C0140003401400004004000080040F8
:102A7000000C004070B50446006801694FF0000585
:102A8000C943890715D4C168C943890711D4E91E10
:102A9000016101202077206880698007204602D0EC
:102AA000FFF7A6FE04E000F0BDF8204600F04CF968
:102AB000257720680169C943490717D4C168C9430C
:102AC000490713D46FF004010161022020772068C8
:102AD000806910F4407F204602D0FFF789FE04E0B1
:102AE00000F0A0F8204600F02FF925772068016952
:102AF000C943090716D4C168C943090712D46FF046
:102B000008010161042020772068C0698007204601
:102B100002D0FFF76DFE04E000F084F8204600F0DC
:102B200013F9257720680169C943C90617D4C1681C
:102B3000C943C90613D46FF0100101610820207742
:102B40002068C06910F4407F204602D0FFF750FE95
:102B500004E000F067F8204600F0F6F825772068DA
:102B60000169C943C90708D1C168C943C90704D16C
:102B7000891E0161204600F043F920680169C943BC
:102B8000090609D4C168C943090605D46FF080015C
:102B900001612046FFF7AEFC20680169C943490680
:102BA00009D4C168C943490605D46FF040010161E9
:102BB000204600F058F920680169C94389060BD402
:102BC000C168C943890607D46FF02001016120461E
:102BD000BDE87040FFF78FBC70BD000000B585B048
:102BE000002100910191029103910068B0F1804FA2
:102BF00011D10A48816941F0040181618069694607
:102C000000F0040004900C2000900220019003903A
:102C10000348FEF76BFB05B000BD0000001002404A
:102C200000080140704770B5044690F83C000D461E
:102C300001280AD0012084F83C0042B1042A18D0AF
:102C4000082A2AD00C2A4DD139E0022070BD206814
:102C500001F062FC2068816941F00801816120680F
:102C6000816921F004018161206881692A69114329
:102C700011E0206801F080FC2068816941F4006166
:102C800081612068816921F48061816120688169A6
:102C90002A6941EA0221816124E0206801F0A2FC56
:102CA0002068C16941F00801C1612068C16921F053
:102CB0000401C1612068C1692A69114311E02068DB
:102CC00001F0C4FC2068C16941F40061C161206861
:102CD000C16921F48061C1612068C1692A6941EA42
:102CE0000221C161002084F83C0070BD10B50400D1
:102CF00003D094F83D0010B107E0012010BD002082
:102D000084F83C00204600F01EF8022084F83D00C4
:102D1000211D206801F09AFB012084F8460084F808
:102D20003E0084F83F0084F8400084F8410084F8B5
:102D3000420084F8430084F8440084F8450084F895
:102D40003D00002010BD70477047000010B50446DC
:102D5000022249B104290ED0082913D094F8410069
:102D6000012816D0012010BD94F83E000128F9D1A9
:102D700084F83E200FE094F83F000128F2D184F857
:102D80003F2008E094F840000128EBD184F840206F
:102D900001E084F841200122206801F09DFB1349E5
:102DA0002068134A884201D0904203D1436C43F417
:102DB00000434364206888420DD090420BD0B0F1AC
:102DC000804F08D00B49884205D00B49884202D079
:102DD0000A49884204D1816801F00701062903D01D
:102DE000016841F001010160002010BD002C01408C
:102DF000003401400004004000080040000C004086
:102E000070B50B490068096888420FD1094D2868E0
:102E1000401CA0F5B8512860703907D1064CA06954
:102E200002F05AFF60610020A061286070BD0000C0
:102E3000940300202000002070050020024600209E
:102E400041B1042909D008290AD00C2901D1106800
:102E5000006C70471068406B70471068806B70475B
:102E60001068C06B704770477047704710F83D1F7F
:102E70004078084370470000F8B5026804461068BF
:102E8000D168536910F00F0F4FF0000553D003F0D5
:102E9000010601F4907737435FD0C20705D0CA0519
:102EA00003D5226C42F001022264420705D5DA07FD
:102EB00003D0226C42F002022264820705D5DA07B1
:102EC00003D0226C42F004022264020707D501F00D
:102ED0002002324303D0226C42F008022264226CAA
:102EE000002A34D0800604D5880602D5204601F099
:102EF000B4FC20684069216CC0F38010090700D43D
:102F000030B3204601F088FC2068416949061BD592
:102F1000416921F040014161A06BA8B1584941636A
:102F2000A06BFDF79BFF002811D0A06B416B01B097
:102F3000BDE8F040084783060FD58B060DD5204627
:102F4000BDE8F84001F089BC2046FFF78EFFF8BDD0
:102F50002046FFF78AFF2564F8BD266B2023012E4B
:102F600052D1C60650D5CE064ED510685068009096
:102F7000506940062AD5A16B086840680004000C1F
:102F8000EAD0A68D8642E7D9E0858869202818D046
:102F9000D06820F48070D0602068416921F0010180
:102FA00041612068416921F04001416184F83E306F
:102FB00025632068C16821F01001C160A06BFDF796
:102FC00029FFA08DE18D401A81B219E0A08DE18D1D
:102FD000401A81B2E08D0028BED00029BCD0D06854
:102FE00020F49070D0602068426922F001024261B2
:102FF00084F83E3025632068C26822F01002C26067
:103000002046FFF731FFF8BD05062BD50D0629D563
:1030100094F83D002128F6D1A068B0F5805F01D179
:103020002069B0B1206A411C2162216800784860A3
:10303000E08C401E0004000CE084E4D12068C168EC
:1030400021F08001C1602068C16841F04001C16089
:10305000F8BD206A0088C0F308005060206A801C18
:103060002062E5E74006F3D54806F1D5D168204651
:1030700021F04001D16084F83D3000F0E5F8F8BD62
:103080008747000870B5040004D094F83D0000257F
:1030900010B106E0012070BD84F83C50204600F0DD
:1030A00023F8242084F83D002068C16821F40051F1
:1030B000C160204601F02CFC2068016921F4904198
:1030C00001612068416921F02A0141612068C168DD
:1030D00041F40051C1602564202084F83D0084F84B
:1030E0003E00002070BD0000F0B585B0002406460B
:1030F000009401940294039400682D49884254D1AD
:103100002C48816941F480418161816901F48041E9
:103110000491816941F0040181618069264D00F0CC
:10312000040004904FF400700090022001900320EE
:10313000039069462846FEF7D9F82815CDE9000422
:10314000694628460294FEF7D1F81D4D1B4880279A
:1031500001C5102091C51A4845F810496C61AC6151
:10316000EC61FEF73BF808B1FDF774FB75636E6226
:10317000134D124844351430C5E90004C5E902472F
:1031800020202C61C5E905402846EC61FEF726F8B1
:1031900008B1FDF75FFBB5630022114625206E6282
:1031A000FEF706FE2520FEF7F5FD05B0F0BD000098
:1031B0000038014000100240000801404400024075
:1031C000200400207047000070B5044690F83D00D0
:1031D000202830D169B362B394F83C0001282AD08A
:1031E000012084F83C002162A284E2840025256449
:1031F000212084F83D00636B10489862636B10488F
:10320000D862636B0F481863606B1346456326688A
:10321000606B321DFEF720F821686FF040000860F7
:1032200084F83C502068416941F0800141610020F0
:1032300070BD012070BD022070BD0000E147000894
:103240000F4800089747000870477047FEE70000E6
:103250000148FEF74FB900005C0200200148FEF76C
:1032600049B90000B002002038B5406A002190F84A
:103270003D202B4B46F2A8141B68B3FBF4F3C3EBC1
:10328000C30303EB830300933BB15B1E009303680E
:103290001B689B0505D5009BF6E7036C43F02003F4
:1032A0000364436B03B19962836B03B19962036852
:1032B0001C6824F480641C604185436B03B159632E
:1032C000836B03B1596303681C6824F001041C601C
:1032D00090F83D402023602C0BD0282434EA0202D1
:1032E0000FD080F83D3080F83E1000BFFEF71AFA8C
:1032F00038BD80F83D3080F83E100164FEF7F8F8E4
:1033000038BD0268136843F0010313600268136854
:1033100043F480631360016380F83D40E6E70000FA
:103320003000002070B5044690F83D0094F83E103F
:10333000102901D0402906D1222804D121680A6829
:1033400022F400620A60282131EA00024FF00005F1
:103350004FF0200626D021684968090505D4602869
:1033600003D084F83D6084F83E50256320684168AE
:10337000090537D5416821F400614160606B3D4922
:1033800090F82120012A11D04163606BFDF766FDA2
:1033900038B32068016821F00101016084F83D60C4
:1033A000606B1CE0256384F83D10DFE7A06B416390
:1033B000A06BFDF753FDA0B120684169C9434906E0
:1033C00005D40069616A0870606A401C6062206808
:1033D000016821F00101016084F83D60A06B416B40
:1033E000884710E094F83D10602910D04169C94326
:1033F000490605D40069616A0870606A401C606211
:103400002046FEF78FF9206CC1071CD115E084F827
:103410003D6025644169C943490605D40069616A74
:103420000870606A401C60622068016821F0010138
:1034300001602046FEF75CF8E5E7810703D4410709
:1034400001D4000704D52068416821F4E06141609F
:1034500094F83D00216C49070BD5282809D106486E
:10346000E062256384F83D6084F83E502046FEF714
:103470001FFA70BD693200080000FFFF01684A6949
:10348000D24352050FD46FF480624A61002140F8A4
:10349000301F202242738173026942F004020261EC
:1034A0000173012070470020704710B5C26A438D38
:1034B0000168042B06D0438D032B08D0438D022BCB
:1034C0001DD012E04A6822F480624A600CE04B682A
:1034D00023F480634B60042A06D0022A04D00168DA
:1034E0000A6822F480620A6001680969426A117000
:1034F000416A491C4162418D491E418510BD012A26
:1035000030D0102A2ED0042A30D0022A2ED00A68B9
:1035100042F400720A6001680969426A1170416AE6
:10352000491C4162428D521E4285026812690A702E
:10353000416A491C4162418D491E418501684A68C2
:1035400022F440724A60202180F83D1090F83E201D
:103550000021402A80F83E100CD012210163FEF7B2
:10356000A8F910BD0A6822F48062D3E70A6842F421
:103570008062CFE70163FEF757FB10BD38B590F8C6
:103580003D10222914D1418D032912D901680969FE
:10359000426A1170416A491C4162418D491E418550
:1035A000418D032904D10068416821F480614160A4
:1035B00038BDC26A022AFBD0012901D00029F7D107
:1035C000274946F2A81300220968B1FBF3F101EB89
:1035D0008101009101682023009C641E009422D088
:1035E0000C68A405F8D40C6824F480640C600168AD
:1035F0004C6824F4E0644C6001680969446A2170F5
:10360000416A491C4162418D491E418580F83D3027
:1036100090F83E1080F83E2040291DD01221016311
:10362000FEF747F938BD046C44F0200404644C688C
:1036300024F4E0644C6001680969446A2170416ABD
:10364000491C4162418D491E418580F83D3080F81A
:103650003E20FEF767F838BD0263FEF7E5FA38BD95
:10366000300000202DE9F84F0446C06A1E469346FC
:103670000D4621680A6842F480620A60082807D073
:10368000012805D010F5803F02D0206B112804D10D
:103690002068016841F4807101604FF001195B46B8
:1036A000002249462046009600F078FB4FF400784F
:1036B00040B120680068C00501D5C4F840800320EF
:1036C000BDE8F88F2069DFF884A0B0F5804F0FD0F7
:1036D0000620216800EAD51747F0F000086133465C
:1036E0005A460AF10601204600F08CFB58BB03E065
:1036F000E8B240F001001CE02168E8B208613346FE
:103700005A465146204600F07DFBE0B920684169E9
:1037100081690091016841F4807101605B4600227B
:1037200049462046009600F039FB0028C1D147F0F9
:10373000F1002168086133465A465146204600F0A0
:1037400061FB0028BCD00120BAE7000002000100A4
:10375000F8B50446C06A1E460D461746082807D02D
:10376000012805D010F5803F02D0206B122804D12B
:103770002068016841F480710160134600224FF017
:1037800001112046009600F009FB40B12068006856
:10379000C00502D54FF4007020640320F8BD2069F5
:1037A000B0F5804F0ED00620216800EAD51040F019
:1037B000F000086133463A460B49204600F022FBF0
:1037C00078B902E005F0FE0000E0E8B22168086187
:1037D000054933463A46891F204600F013FB00286E
:1037E000DCD00120F8BD00000800010010B5C26A5D
:1037F00090F83D1021290BD1418D51B1416A0268E9
:1038000009781161416A491C4162418D491E418517
:1038100010BD20230021082A13D0202A11D012F530
:10382000803F0ED00268546824F4E0645460112292
:10383000026380F83E1080F83D3000BFFEF73AF892
:1038400010BD0268546824F4E0645460026814688F
:1038500044F400741460016380F83D3090F83E2019
:1038600080F83E10402AE9D1FEF7DFF910BD0000D4
:1038700010B590F83D1090F83E30C26A048DB4B196
:10388000212903D0402B11D122290FD1418DE1B341
:1038900090F83E10402942D0416A026809781161CF
:1038A000416A491C4162418D491E418510BD212953
:1038B000E8D120230021082A13D0202A11D012F5A4
:1038C000803F0ED00268546824F4E06454601122F2
:1038D000026380F83E1080F83D3000BFFDF7EAFF3C
:1038E00010BD0268546824F4E064546002681468EF
:1038F00044F400741460016380F83D3090F83E2079
:1039000080F83E10402AE9D100E002E0FEF78DF990
:1039100010BD0068416821F48061416010BDBDE8C0
:10392000104000F0F3B8000078B590F83E50C26A3D
:10393000046B90F83D6000230168222E73D1066D60
:103940000EB9402D6FD0056D1DB90569B5F5404F15
:103950001BD0458D95B3468D484D012E20D0448D0A
:10396000022C4DD00C6844F480640C6001684C68F3
:10397000240579D5AA4273D0012A71D0082A6FD0C4
:10398000102A6DD0202A6BD06EE04A698A690092B5
:103990000A6842F480720A60016D491C016578BDB5
:1039A000AA4214D10A6822F480620A6001684A6857
:1039B000120504D50A6822F4806217E0FFE74A691D
:1039C0008A6900920A6842F400720A6050E0082A8C
:1039D00010D0202A0ED0122C0AD0042A03D0022A9A
:1039E00001D0102AE6D10A6842F480620A603BE006
:1039F000012ADFD00A6822F480620A600168DEE7EB
:103A0000042A11D0022A0FD0102A0DD00C6844F4D9
:103A100000640C6001684C698C6900940C6824F4A3
:103A200080640C6008E025E00C6844F480640C605D
:103A300001684C698969009101684C68240517D5B3
:103A4000AA4207D0012A05D0082A03D0102A01D0A3
:103A5000202A0DD14A6842F480524A6008E0FFE70C
:103A60004A6842F480524A6001684A698969009153
:103A7000036578BD48698869009078BD0000FFFF44
:103A800090F83E10402910D00169B1F5804F19D04F
:103A9000016DA9B3016D012910D1416C5FF0F102F4
:103AA00001F4407142EAD11106E0016D0029416C38
:103AB00005D0C9B241F0010100680161704701F011
:103AC000FE01F9E790F83D102129416C09D0C9B2F7
:103AD00041F0010102681161416B29B1896A49B95C
:103AE00002E001F0FE01F5E7816B0029E6D0896A6A
:103AF0000029E3D00068416841F4006141607047EB
:103B0000FFE7416CF02201F44071CBE710B590F86B
:103B10003D10026D22B3026D012A2FD0026D022AE0
:103B20001DD122292FD0428D0AB1212933D0428DB7
:103B3000002A14D1212912D101684A6822F4E062D6
:103B40004A6001680A6842F400720A600021016359
:103B5000202280F83D2080F83E10FEF766F810BD68
:103B6000C16C0129816C02D0C1F3072108E0026811
:103B7000C9B21161016D891C016510BD816CC9B2AA
:103B80000268116104E001680A6842F480720A6008
:103B9000016D491CF0E7416A026809781161416AC8
:103BA000491C4162418D491E418510BD38B50C4606
:103BB00090F83D2000212825954302680B4605D04A
:103BC00051699169009180F83C3038BD556825F401
:103BD00080655560E243540700D50121120601D5E6
:103BE000828900E0028B80F83C3092B2FDF781FCC4
:103BF00038BD0000F8B590F83D60044600684168A3
:103C000021F4E0614160206800254169009101686C
:103C100041F0010101602068016821F480610160C8
:103C200020684168090520D5474F222E48D02A2E0A
:103C300046D0616B096849686185618D19B1216C55
:103C400041F004012164416821F400614160606B2E
:103C5000FDF79CF9012808D0606B4763606BFDF7A6
:103C6000FDF810B1606B416B8847608D08B3206828
:103C70004169C943490708D40069616A0870606AEC
:103C8000401C6062608D401E608520684169C943A8
:103C9000490608D40069616A0870606A401C606265
:103CA000608D401E6085608D18B1206C40F004006E
:103CB0002064206C00B32046BDE8F840FFF732BB1B
:103CC000A16B096849686185618D19B1216C41F06A
:103CD00004012164416821F400614160A06BFDF79B
:103CE00055F90128C1D0A06B4763A06BFDF7B6F86A
:103CF0000028BAD0A06BB6E72A2E06D1256328206B
:103D000084F83D002046FDF7EBFF94F83D1020209D
:103D100028290DD0216B222901D0222E07D125631D
:103D200084F83D0084F83E502046FDF7D9FFF8BDE9
:103D30000649E162256384F83D0084F83E50204640
:103D4000FDF7B6FDF8BD0000693200080000FFFF76
:103D500070B516460D4604460DE02046FFF78EFB73
:103D600008B1012070BD681C05D0FDF7BBFB801BAE
:103D7000A84207D835B120684069C0434007ECD459
:103D8000002070BD002044F8300F20216173A07323
:103D9000216941F0200121612073E2E72DE9F0471C
:103DA0001E4690460D460446C1F30747DDF82090B5
:103DB00008E0701C06D0FDF795FBA0EB0900B042AF
:103DC0000FD876B12068012F18D0806925EA00004D
:103DD0000004000C14D000214145EAD00020BDE8C9
:103DE000F087002044F8300F20216173A07321690F
:103DF00041F02001216120730120F0E74069E5E7EF
:103E00000121E9E72DE9F0479A4691460E4604461E
:103E100000254FF02008C1F3074725E020684069DE
:103E2000C043400514D42068016841F4007101606A
:103E300021686FF480604861256384F83D8084F8D0
:103E40003E50206C40F00400206484F83C501FE099
:103E5000B9F1FF3F08D0FDF745FBA0EB0A0149454A
:103E60000CD8B9F1000F09D02068012F13D0806958
:103E700026EA00000004000C0BD0CFE744F8305FC6
:103E800084F80D80A573206940F02000206125731F
:103E90000120BDE8F0874069EAE72DE9F0410025FF
:103EA00090460E460446202717E04069C043C006EE
:103EB0000CD454F8301B6FF01000486144F81059CE
:103EC0006777A577206A2062257717E0FDF70AFB60
:103ED000A0EB0800B04208D83EB120684169C94350
:103EE0004906E2D40020BDE8F08144F8305F6773F2
:103EF000A573206940F02000206125730120F2E7BE
:103F000070B516460D4604460DE02046FFF7B6FA9A
:103F100008B1012070BD681C05D0FDF7E3FA801BD5
:103F2000A84207D835B120684069C0430006ECD4E8
:103F3000002070BD002044F8300F20216173A07371
:103F4000216941F0200121612073E2E770B51D462F
:103F500004004AD0206B6063E06A2063C4E9051264
:103F60000846114602F008F80646E062314620682D
:103F700001F0FAFE206226F00040294601F0C0FE62
:103F800007D8E16A606801F0EFFE616A01F01AFD8E
:103F90006062D4E90B0101F0EFFFA16801F0E4FEDB
:103FA000A062216901F0ACFF206908D380F00040D5
:103FB000A16A01F0A5FF03D2206980F00040A06251
:103FC000D4E9080101F0FEFCA16A01F0FBFCE0610C
:103FD000E16801F095FFE0680CD380F00040E169F2
:103FE00001F08EFF03D3E06970BD002070BDE06872
:103FF00080F00040E06170BD3EB5002111480091A5
:1040000001910F4A029102600124816004730175DD
:104010004FF460220461C2614160FCF741FD08B1C8
:10402000FCF718FC0420CDE9000407200290694643
:104030000448FCF7B3FC002801D0FCF70BFC3EBDA4
:10404000002401402C0200200D4808B5416941F0D0
:10405000010141614069002200F001000090114619
:104060000E20FDF7A5FE0E20FDF794FE002211465E
:104070000F20FDF79DFEBDE808400F20FDF78ABE2A
:10408000001002400D4808B5816941F004018161CA
:10409000816901F004010091816941F008018161A9
:1040A000816901F008010091816941F0200181617D
:1040B000806900F02000009008BD00000010024060
:1040C0000D4810B50B4901600C49416000214FF4C7
:1040D00080428160C0E9031241618161C161016276
:1040E000FDF722FB002803D0BDE81040FCF7B2BB6F
:1040F00010BD0000005400405C020020A0860100BA
:104100000D4810B50B4901600C49416000214FF486
:1041100080428160C0E9031241618161C161016235
:10412000FDF702FB002803D0BDE81040FCF792BB6E
:1041300010BD000000580040B0020020A086010021
:1041400010B58EB000240794089409940A940B9437
:104150001C2168460C94FCF759F822484FF0804126
:1041600001604721C0E9011440F2F311C0E90314D2
:104170008461FEF7FFF908B1FCF76CFB4FF4805047
:10418000079007A91748FEF7C7FA08B1FCF762FBCA
:104190001448FEF7ABFD08B1FCF75CFB0B940BA9D0
:1041A00010480C94FEF7A8F908B1FCF753FB602007
:1041B000CDE900040294082269460A480494FEF7F7
:1041C00032FD08B1FCF746FB0C2269460548FEF7B4
:1041D0002AFD08B1FCF73EFB0248FEF7FFFC0EB0DB
:1041E00010BD00000403002010B58AB0002423484D
:1041F00004940594069407940894099400940194F7
:1042000002941D49039401604721C0E901144FF64F
:10421000FF71C0E9031480218161FEF7ABF908B199
:10422000FCF718FB4FF48050049004A91348FEF7E4
:1042300073FA08B1FCF70EFB1048FEF772FB08B1E9
:10424000FCF708FB089408A90C480994FEF754F9F8
:1042500008B1FCF7FFFA0120CDE9004002940422E6
:10426000694606480394FEF7D5FA002801D0FCF70A
:10427000F1FA0AB010BD0000000400404C03002019
:1042800010B58AB00024224804940594069407943B
:10429000089409940094019402941C4903940160C9
:1042A0004721C0E9011442F20F71C0E9031484618F
:1042B000FEF760F908B1FCF7CDFA4FF48050049096
:1042C00004A91348FEF728FA08B1FCF7C3FA10480E
:1042D000FEF727FB08B1FCF7BDFA089408A90C48C3
:1042E0000994FEF709F908B1FCF7B4FA0120CDE909
:1042F000004002940022694605480394FEF78AFABA
:10430000002801D0FCF7A6FA0AB010BD0008004052
:10431000940300200C4810B50A4901604FF4E131C4
:104320004160002181600C22C160C0E904128161FA
:10433000C161FEF7A7FE002803D0BDE81040FCF7DE
:1043400089BA10BD00380140DC030020FEE7FEE71B
:10435000704730B50028DDE903540AD0046180E8D5
:104360002E000021C16181624162016241630163EB
:10437000C16230BD70470000FEB51D461646DDE93E
:104380000A32DDE908C7002911D0094C94F801E090
:104390008E4509D3002161700097CDE90132634653
:1043A0002A463146FCF712F96078401C6070FEBD69
:1043B0004C000020FDF796BC30B595B0282168462A
:1043C000FBF724FF14210AA8FBF720FF18210FA8F0
:1043D000FBF71CFF01210804CDE900100025029520
:1043E00002240491CDE907404FF4E010099068469B
:1043F000FDF7DCFE08B172B6FEE70AA90F2081E8DE
:1044000031004FF48060CDE90D0502210AA8FDF7C7
:10441000E1FD08B172B6FEE74FF4004011900F9431
:104420000FA8FDF761FD002801D072B6FEE715B0B8
:1044300030BD70470148FEF71DBB00004C03002053
:104440000148FEF717BB000094030020F0B5026896
:104450001C4B1D4D1D4E1E4F1E4C4FF0804C984264
:1044600009D0A04207D0604505D0A84203D0B04291
:1044700001D0B84204D122F0700E4A6842EA0E021E
:10448000984209D0A04207D0604505D0A84203D089
:10449000B04201D0B84203D122F44075CA682A4321
:1044A0004D6922F080022A4302608A68C2620A686B
:1044B0008262984201D0A04201D1096901630121C1
:1044C0004161F0BD002C01400004004000080040A4
:1044D000000C00400034014010B501F01F03012121
:1044E000046A99408C430462016A9A401143016254
:1044F00010BD10B5846842EA032224F47F440A43C5
:104500002243826010BD826822F070020A4342F0AA
:104510000701816070470000F0B5026A22F00102D5
:104520000262036A42688469124E24F073050C68C3
:104530002C4323F002058B682B430D4DA84201D07C
:10454000B04205D123F00807CB683B4323F00403B6
:10455000A84201D0B04205D14D6922F44072154302
:104560008A692A4342608461496841630362F0BDFD
:10457000002C014000340140F0B5026A22F0100224
:104580000262026A436884690D6824F4E64444EADE
:1045900005248D6822F0200242EA05120F4D104ECC
:1045A000A84201D0B04206D1CF6822F0800242EA90
:1045B000071222F04002A84201D0B04207D14D6953
:1045C00023F4406343EA85038D6943EA850343602E
:1045D0008461496881630262F0BD0000002C0140E3
:1045E00000340140F0B5026A22F480720262026A6D
:1045F0004368C46922F4007224F073050C68124EFB
:104600002C438D6842EA05220E4DA84201D0B042EB
:1046100006D1CF6822F4006242EA072222F48062C7
:10462000A84201D0B04207D14D6923F4405343EA78
:1046300005138D6943EA05134360C4614968C1638A
:104640000262F0BD002C01400034014030B5026A26
:1046500022F480520262046A4268C3690D6823F43E
:10466000E64343EA05238D6824F4005444EA053404
:10467000084DA84202D0084DA84204D14D6922F449
:10468000804242EA85124260C36149680164046263
:1046900030BD0000002C01400034014010B5036A19
:1046A000046A24F001040462846924F0F00444EAFA
:1046B000021423F00A020A438461026210BD000062
:1046C00070B5046A24F0010404628469056A124E1C
:1046D000B0420ED0114EB0420BD0B0F1804F08D096
:1046E0000F4EB04205D00F4EB04202D00E4EB04237
:1046F00003D124F00304144301E044F001041A0739
:1047000024F0F00444EA126225F00A0301F00A01E1
:1047100019438261016270BD002C014000340140E8
:104720000004004000080040000C004010B5036A7F
:1047300023F0100303628369046A23F4704343EA9D
:10474000023224F0A00343EA01118261016210BD2C
:1047500030B5046A24F0100404628469056A24F404
:10476000407444EA022222F470444FF6FF7202EAD7
:1047700003322243A02425F0A00304EA01111943C7
:104780008261016230BD10B5406A0021C185C184DB
:10479000FEF76BFB10BD70B5446A2068406994F861
:1047A0003D10C0F3C0100025212904D118B1E584C3
:1047B000204600F049F82068406994F83E10C0F3A4
:1047C0008010222904D118B1E585204600F024F894
:1047D000206C40F0100020642046FEF746FB70BDC0
:1047E00010B50146406A0968096889060CD40021A1
:1047F000C18401684A6922F080024A610068C16888
:1048000041F04001C16010BDFEF71EFD10BD10B5A6
:10481000406AFEF71AFD10BD0168CA6822F4907262
:10482000CA6001684A6922F001024A61016B0129EC
:1048300004D10168CA6822F01002CA60202180F801
:104840003E100021016370470168CA6822F0C0026F
:10485000CA60202180F83D10704708B590F83E10DE
:10486000222901D0022008BD82684FF480539A4269
:1048700001D1016921B1816A9A421BD04AB10AE093
:104880000268816A5268C2F308020A80816A891C40
:1048900008E0026972B10268526802F07F020A7091
:1048A000816A491C8162C18D491E0904090CC185B8
:1048B00003D019E002685268F1E70168CA6822F083
:1048C0002002CA600168CA6822F48072CA60016866
:1048D0004A6922F001024A61202180F83E10016BF2
:1048E000012903D0FEF76EFC002008BD0021016302
:1048F0000168CA6822F01002CA6001680A68D2061C
:1049000002D50A6849680091818DFEF7ADFAEBE7A0
:1049100070B5044600680169E26821F44051114312
:1049200001612169A0680843616908432168CA6878
:1049300041F20C639A430243CA6020684169A2694C
:1049400021F44071114341611E492068884202D11F
:10495000FDF7E6FB01E0FDF7D3FB00EBC00101EB47
:104960000012606864218000B2FBF0F3B3FBF1F346
:104970006FF018067343B2FBF0F5B2FBF0F605EBEF
:104980008305322303EB0515B5FBF1F5B6FBF1F614
:1049900005F0F00505EB0615B2FBF0F6B2FBF0F002
:1049A000B0FBF1F06FF01802504306EB800003EB10
:1049B0000010B0FBF1F0216800F00F00284488607F
:1049C00070BD0000003801400148FEF755BA0000F4
:1049D000DC030020FEE7000010B508210748FEF7C1
:1049E000B5F90C210548FEF7B1F90448FA2102682F
:1049F000D16300680021016410BD000004030020A1
:104A00000088002100EB4000C83082B20648C82A66
:104A1000028001D800220280044892B20368DA635F
:104A20000068016470470000480000200403002073
:104A30000907090E002804DB00F1E02080F80014CB
:104A4000704700F00F0000F1E02080F8141D70475F
:104A50002DE9F0414F1E00EBC7010446D1E90001EA
:104A600015461E4637F006020DD02A46334600F0A2
:104A700089FD7F1E04EBC703D3E9002300F008FB88
:104A800037F00602F1D1022F25D0042F13D0062FC4
:104A900018BFBDE8F0812A46334600F073FDD4E923
:104AA0000A2300F0F5FA2A46334600F06BFDD4E9FC
:104AB000082300F0EDFA2A46334600F063FDD4E9FE
:104AC000062300F0E5FA2A46334600F05BFDD4E900
:104AD000042300F0DDFA2A46334600F053FDD4E902
:104AE000022300F0D5FA2A46334600F04BFDD4E904
:104AF0000023BDE8F04100F0CBBA000000221346CD
:104B00001046014900F080BB0000F03F012201F097
:104B1000DABA002213461046114600F075BB70B594
:104B2000054601F085F8044601F0BEF8294601F07B
:104B300018FAB0F17C5F00DB641C204670BD0000F9
:104B40002DE9F0410D461C461646274901F00CF9A7
:104B5000FFF7E5FF217861363D226E542178491C2C
:104B6000C9B221706A542178491CC9B22170002849
:104B700005DA2D226A5421784042491C2170002117
:104B800002460A2304E000BF92FBF3F2491C49B23B
:104B9000002AF9D10A464FF02E0E16E090FBF3F6EC
:104BA00003FB1606277890FBF3F005EB020C30367A
:104BB00007F80C608E1A012E05D12678521E2E445D
:104BC00006F802E052B2521E52B2002AE6DA20780B
:104BD000491C0844C0B220702C2129542078401C64
:104BE0002070BDE8F08100000000C8422DE9F04DC2
:104BF000C84A002490B0914205DA21F00043934264
:104C000001D805D120B110B0BDE8F04DFFF77EBF4F
:104C1000B1F5801F1BDA53EA000209D0002911DA2E
:104C20000120FBF722FB10B0BDE8F04DFFF771BF8C
:104C30000220FBF71AFBFFF761FF10B081F0004183
:104C4000BDE8F08D6FF03504362201F03CFA04EB3C
:104C50002152C1F31308B049A2F2FF33414401F4D9
:104C6000801282F07F6103EB225281F0405100926A
:104C700041EA08010022A94B00F08EFD044608F12C
:104C80000200A74EC0F313000D467E44032867D2EE
:104C9000D6E90023204600F00FFC1ED10098002822
:104CA00002BFD6E9000110B0BDE8F08D00F040FC75
:104CB00007460C469B4A9C4B00F064FC06460D469A
:104CC0009A4A9B4B3846214600F05CFC10B03246B5
:104CD0002B46BDE8F04D00F0DBB94FF05532954B57
:104CE0002046294600F04EFC0022934B00F048FD80
:104CF00006460F4622462B461046194600F042FC57
:104D000032463B4600F03EFC064600980F46F0B1A6
:104D100000F00EFC80468A46824A834B00F032FC4B
:104D200032463B4600F02CFD22462B4600F034FD77
:104D300005460C467D4A7E4B4046514600F022FC1B
:104D400010B02A462346BDE8F04D00F025BD0B46C5
:104D500010B0324620462946BDE8F04D00F01CBD9B
:104D600000224FF08043204600F092F902460B46A5
:104D70002046294600F048FA06460F46009800F003
:104D8000D7FBCDE9040132463B461046394600F0D8
:104D9000F9FB0C9069480C9A4044019009910B462C
:104DA000104600F0EFFB8246024665488B46C8F18C
:104DB00051080B4608F5D72803217844FFF748FE31
:104DC00052465B4600F0DEFB0A905E480D9152466B
:104DD0005B4604217844FFF73BFE099B0C9A00F0E8
:104DE000D1FB844601980D9B40EA080860460A9A68
:104DF00000F04EF983460891B8F1000F4EDD4FF0F8
:104E0000FF322046294601F05EF922462B4600F08B
:104E1000B9FB804600988A4660B3DDE90401414A47
:104E2000414B00F0AFFB099100905A464046514675
:104E3000089B00F02DF932463B4600F0A3FB099B8E
:104E4000009A00F025F94246534600F099FC2246AC
:104E50002B4600F0A1FC04460D46DDE90401334A6F
:104E6000334B00F08FFB10B022462B46BDE8F04DCF
:104E700000F092BC5A464046089B00F009F93246C1
:104E80003B4600F07FFB4246534600F079FC10B0F1
:104E900022462B46BDE8F04D00F072BC009840B3AE
:104EA000DDE904011F4A204B00F06CFB80468A4676
:104EB0005A4620462946089B00F06EFC32463B4687
:104EC00000F060FB4246534600F066FC22462B464B
:104ED00000F062FC04460D46DDE90401134A144B60
:104EE00000F050FB10B022462B46BDE8F04D00F01C
:104EF00053BC0B465A462046294600F04DFC32462C
:104F00003B4600F03FFB10B022462B46BDE8F04D7B
:104F100000F036BC0000F07F645F09000000F03F45
:104F200062150000763C7935EF39EA3D0000E0FE7D
:104F3000422EE63F5555D53F0000E03F86EBF9FF96
:104F4000FA130000F81300001FB5FCF7D3FEFFF7BB
:104F500033FAFFF797F8FFF7F3F8FFF7B1F8FFF729
:104F60004BF8FFF771F8FFF7D5F9FFF7C9F8FFF72E
:104F70003BF9FFF785F9FBF761FCFBF725FA2348BE
:104F8000009001900023224A22492348FFF7E1F9CB
:104F9000FFF722FD20483830FBF7ECFA1F48FBF7FB
:104FA0005BFC1F4C1F4E00254FF07E571C491031F3
:104FB000081FFBF7D3FB1A491831081FFBF714FA37
:104FC0001648FBF767FCE061D4E901131248A269B7
:104FD000FEF7BCFF00F048FE20800F482169383002
:104FE000FBF790FA0E48801CFFF70AFD206900903D
:104FF000CDE9016503953B4601210B48A269FFF706
:10500000BBF96420FCF760F9D0E700000000C8425B
:10501000CDCCCCBD0000A0C15C00002070050020FC
:105020000000002000004842DC03002021F0004284
:10503000A2F16052B2F5801F01F0004328BFD2F107
:105040007F6C0BD95FEA001C43EAC20242EB50704E
:1050500018BF704728BF20F001007047B2F5801FCD
:10506000BCBF184670474FEA410C1CF5001F02D226
:10507000084600F040BF70B500F02EFB000000892C
:10508000FFF7F6BF4FF00040A0F58000704700002A
:1050900010B591EA030F48BF83F0004300F1848309
:1050A000841A71EB030C05D2121943EB0C03001B9D
:1050B00061EB0C01DFF824E14FEA1154A4EB135C1F
:1050C0001EEA430F18BF9EEA445F73D023EA0E0323
:1050D000DCF1200E21EA045143F4801332D322FA8A
:1050E0000CFE10EB0E0023FA0CFE41EB0E01CCF18E
:1050F000200E03FA0EFE10EB0E0051F10001B1F587
:10510000801FCCF1200E32D201EB045112FA0EF2C4
:10511000BDE8104058BF7047401C38BF5FEA4202EC
:1051200018BF7047002814BF20F0010041F10001B2
:105130004FEA410313F5001F38BF7047A1F1C0418A
:1051400000F018BB012A43EB0302ACF1200CDCF1A8
:105150001F0E32BF4FF0000E23FA0CF310EB0300CA
:1051600041EB0451B4EB115FD0D0A1EB045101F538
:10517000801149085FEA300001EB04510ED350F171
:10518000000038BF12FA0EFE08D1BDE81040C9E792
:10519000401C38BF5FEA4202CAD1C3E7BDE81040F5
:1051A0004FEA410313F5001F38BF7047A1F1C0411A
:1051B00000F0E0BA9EEA445F08D011EA5E0FBDE855
:1051C000104004BF01F0004100207047BDE81040CE
:1051D00070B500F081FA00BF64FBBE3E0000E0FF46
:1051E00002494FF0000000F03CBF00BF0000F87F14
:1051F000491058BFC1F140415B1058BFC3F1404353
:105200008B42EFF3008070472DE9C04130B4DFF8E6
:10521000A0C23CEA111418BF3CEA131400F0EC8061
:1052200081EA03051CEA111444EAD57418BF1CEA8C
:10523000131500F0C780A4EB05044FF0004545EAC4
:10524000C12145EAC32341EA505143EA525304F1D4
:105250007F74994204F500344FEAC0204FEAC2221D
:1052600008BF904200F09C804FEA13650FF2401691
:10527000765D4FEA134506FB05F7C7F1807706FB1D
:1052800007F74FEAD737A7FB03687642C8F580389F
:10529000A7FB06CE38BFA8F1010807FB08E64FF0D0
:1052A000000EA6FB028CE6FB03CEDCF1000CCEF177
:1052B000004E38BFAEF1010EA6FB0C584FF00007B0
:1052C0004FF00005E6FB0E87A1FB08C6A0FB07CE4A
:1052D00016EB0E0645F10005E1FB076515F1E04E02
:1052E0007EBFA4F580345FEA46066D4116F1800763
:1052F00045F100054FEA17274FEA066647EA0567BA
:10530000A6F1DE46B6F1805F4FEA15251FD9384673
:1053100024F0010C05EBC471BCF1FE6F01EB0C1124
:1053200002D8F0BCBDE8008124425CBF01F5801EBC
:105330009EEAC47F02D4F0BCBDE80081244238D488
:10534000F0BCA1F1C041BDE8004100F013BA4FEA42
:10535000D22242EA43524FEAD323A7FB02864FEA06
:10536000D02040EA415007FB03661EEA0E0F4FEAC9
:10537000D12105FB026658BFA6EB0056B6EB0056DE
:105380004FEA520E4EEAC37E18EB0E0E56EB530E4A
:10539000BDD518EB02085E417F1C55F10005B6E74C
:1053A0004FF480154FF000074FF000064FF0000853
:1053B000ADE7F0BC4FF0000001F1C04101F0004149
:1053C000BDE8008111EA0C1F0CEA131500D00CE0B7
:1053D00013EA0C1F00F025804FF00000F0BC81EABA
:1053E000030101F00041BDE80081F0BCBDE80041CF
:1053F00081EA030100F0BEB9F0BCBDE8004170B520
:1054000000F06AF9097EFC3E00F007B881EA03016A
:105410004FF0000001F00041704781EA030100F005
:10542000A9B9F0BCBDE800414FF000002149704728
:10543000FFFDFBF9F7F5F4F2F0EEEDEBE9E8E6E459
:10544000E3E1E0DEDDDBDAD8D7D5D4D3D1D0CFCDE0
:10545000CCCBCAC8C7C6C5C4C2C1C0BFBEBDBCBB19
:10546000BAB9B8B7B6B5B4B3B2B1B0AFAEADACAB14
:10547000AAA9A8A8A7A6A5A4A3A3A2A1A09F9F9EEE
:105480009D9C9C9B9A9999989797969595949393A0
:10549000929191908F8F8E8E8D8C8C8B8B8A898937
:1054A00088888787868585848483838282818180BA
:1054B0000000FF070000F87F51EA030C17D41CF529
:1054C000801F58BFBCF5801F00F10680994218BFAD
:1054D000704708BF9042704707D711F5801F58BF2B
:1054E00013F5801F19D499427047894270471CF503
:1054F000801F08D5BCF5801FF7D58B4218BF7047B9
:1055000008BF824270474FF4001C1CEB410F38BFAC
:105510001CEB430F01D28B42704770B500F0DCF8F2
:10552000922449004FF000514FF08053FFF760BEC6
:1055300010F0004248BF4042B0FA80F310FA03F185
:105540000AD0C3F11D0303F580634FEA415002EB1B
:10555000035202EBD12170474FF000007047B0FAC0
:1055600080F310FA03F10AD0C3F11D0303F5806341
:105570004FEA41504FEA035202EBD12170474FF0FE
:1055800000007047DFF848C170B51CEA111E1EBF4D
:105590001CEA13159EEA0C0F95EA0C0F00F06F80C1
:1055A00081EA030423EA4C134EEAD47E21EA4C112B
:1055B00041F4801143F48013AE44A1FB024CA0FBE4
:1055C0000365AEF17F7E361955EB0C05A1FB034C4C
:1055D0004CF10003A0FB021C16EB0C06654153F1D5
:1055E0000003094218BF46F0010613F4007F0BD1F7
:1055F0004FEA03314FEA0530340341EA155140EADE
:1056000016506FF003020AE04FEAC3214FEAC520AB
:10561000F40241EA555140EA56506FF0020202EBA3
:105620002E4201EB025585EACE710AD05FEA440CA6
:1056300018BF24F0004450F1000041F1000120EABD
:10564000D47040F2FE7C624500D270BDA84214BF07
:105650004FF080444FF04044002E08BF0024BEF1BC
:10566000806FA8BFA1F1C041BDE8704080F2828088
:105670004FF0000001F1C04101F0004170479EEA87
:105680000C0F0CEA131518BF95EA0C0F06D04FF05B
:10569000000081EA030E0EF0004170BD00F01CF81E
:1056A0008900013E00F007B800F009B84FEA430C4A
:1056B0005FEA5C5C08D081EA030100F05BB84FEA66
:1056C000410C5FEA5C5CF6D14FF000000149704785
:1056D0000000FF070000F87F0EF1020E2EF0030E0F
:1056E0005EF8046B364205D4012A43EB030515F539
:1056F000001F12D8012841EB010C1CF5001F0CD82B
:105700000ED14FEAD17C15F5001F0CEB4C0C0CF1BF
:10571000020C08BF4CEBD37C04E04FF0080C01E016
:105720004FEAD37C0CEB4C0526FA05F606F007068B
:10573000B6F1040C06D20EEB860CBDE870404CF0BE
:10574000010C6047DFE80CF0090B02024FF000414A
:105750004FF00000A1F5002170BD19461046012848
:1057600051EB010418BFD4F5001484BF002001F0F0
:10577000004170BD0808A0F500114FEA31017047E3
:1057800091EA030F10B581F000413FF589AC83F039
:10579000004300F009B8000010B591EA030F48BFBC
:1057A00083F000433FF57CAC841A71EB030C07D205
:1057B00012198CF0004C43EB0C03001B61EB0C0145
:1057C000DFF8A4E14FEA1154A4EB135C1EEA430F87
:1057D00018BF9EEA445F00F0B08023EA6E03524295
:1057E00021EA0451C3EB6E0338BF5B1EDCF1200ECF
:1057F00025D322FA0CFE10EB0E0043FA0CFE41EB0F
:105800000E01CCF1200E03FA0EFE10EB0E0051F14A
:105810000001CCF1200E29D412FA0EF201EB045152
:10582000BDE8104058BF7047401C1CBFB2F1004F8C
:10583000704700280CBF491C20F00100704712EB94
:10584000020E43EB030218BF4FF0010E4EEA420274
:10585000ACF1200CDCF11E0E54D943FA0CFE10EB17
:105860000E0051F1FF31CCF11E0ED5D50EF1010E17
:1058700012FA0EFE404141EB010101EB445C5FEA8C
:105880005C5C10D910EBDE7001EB045138BFBEF147
:10589000004FBDE8104018BF704700280CBF491CDE
:1058A00020F00100704730D24FEAD42C11F50011DE
:1058B00024F400641BD0B1FA81F20B3AA41AA41E9E
:1058C000D2F12003914030FA03F31943904001EBE9
:1058D000CC71002C01EB0451BDE81040A8BF70470B
:1058E00001F1C0414FF0000001F000417047B0FAF3
:1058F00080F310FA03F100D110BDE41A173C4805FB
:10590000C90AE4E701EB045110BD491001EB045151
:10591000BDE810404FEA300002E04FF00001704750
:105920004A0008BF0042F8D0B2F5001F28BF7047F8
:1059300001F000414FF0000070479EEA445F07D03D
:1059400011EA5E0FBDE8104004BF0021002070473F
:10595000BDE8104070B5FFF7BFFE00BF40DFF63E68
:1059600083F00041104670470000E0FF43004FEA1B
:10597000D30C4FEA3C0C43401FBF40070CF1605171
:1059800013F0FE4F70471CF0006F03D100200CF0A5
:10599000004170470CF0004343EA507010B540EAF4
:1059A000CC0000F062FA00BF000000924FEA000154
:1059B000FFF7E0BE4FF000414FF00000A1F50021DD
:1059C0007047000090EA010F48BF81F0004100F1EC
:1059D000DA82421A3CBF801A89184FEAD0524FF03F
:1059E0007F4C1CEA410FA2EBD15318BF9CEA026F17
:1059F00000F03B804FF0004C4CEA00204CEA0121C3
:105A000021FA03FC10EB0C0C1ED202F1FF325FEA0C
:105A10001C2040EBC25038BF70471CF07F0F4FEA8C
:105A2000400C18BFBCF17F4F38BF7047C3F1200353
:105A3000994008BF20F00100BCF17F4F38BF70478C
:105A4000A0F1C04000F057BA4FEA3C00000A40EB1A
:105A5000C25028BF1CF0FF0F4FEA400CE6D018BF21
:105A6000BCF17F4F38BF7047EAE79CEA026F05D070
:105A700010EA5C0F08BF00F00040704710B500F05E
:105A8000F4F900BF64FBBE3E014800F0EABA00BF73
:105A90000000C07F401058BFC0F14040491058BFBF
:105AA000C1F140418142EFF3008070474FF47F0C19
:105AB0001CEAD0121EBF1CEAD11392EA0C0F93EA23
:105AC0000C0F00F0858090EA010F48BF42F480720D
:105AD00040F4000C41F400002CF07F4120F07F40A6
